:060000000A128A11FC2F18
:100F54008316031788018901FF3083160313870062
:100F6400880183120313870188010708F7007708B3
:100F74000A128A11C8270A128A11F6007608831207
:100F840003138800B72F0A128A110028F100F30115
:100F9400F401F5017108F000740AD22F0310F00C6B
:100FA400FF3E031DD02F70080139F2007208F000D3
:100FB4007408073C013EE02F0310F00DFF3E031DB3
:100FC400DE2F7008FF007F08F3040130F4070318D4
:100FD400F50A0030F5077508803AFF0080307F027B
:100FE400031DF62F08307402031CF92FFA2FCC2F9F
:0C0FF4007308080083010A128A11AA2F5A
:04400E00E42FFF3F5D
:00000001FF
