:100000000C9434000C943E000C943E000C943E0082
:100010000C943E000C943E000C943E000C943E0068
:100020000C943E000C943E000C943E000C943E0058
:100030000C943E000C943E000C943E000C943E0048
:100040000C943E000C943E000C943E000C943E0038
:100050000C943E000C943E000C943E000C943E0028
:100060000C943E000C943E0011241FBECFEFD8E04C
:10007000DEBFCDBF0E9440000C9466000C940000CF
:100080001AB88FEF84B91BB815B8E7E0F0E049B1B2
:1000900020E090E080E050E0DA01082E02C0B59543
:1000A000A7950A94E2F76A2F617070E0DF01A81B40
:1000B000B90BEB0102C0CC0FDD1FAA95E2F72C2B88
:1000C00001968830910541F725B9E1CFF894FFCF2B
:00000001FF
