:100000000C9434000C9449000C9449000C94490061
:100010000C9449000C9449000C9449000C9449003C
:100020000C9449000C9449000C9449000C9449002C
:100030000C9449000C9449000C9449000C9449001C
:100040000C9449000C9449000C9449000C9449000C
:100050000C9449000C9449000C9449000C944900FC
:100060000C9449000C94490011241FBECFEFD8E036
:10007000DEBFCDBF11E0A0E0B1E0E6E0F2E002C0FB
:1000800005900D92A832B107D9F70E9470000C9428
:1000900001010C940000359B20C060E170E00E94DB
:1000A000D900FC01EE0FFF1FE85FFE4F80818068E2
:1000B00085B98FE19EE40197F1F700C00000660F5B
:1000C000771FFB01E85FFE4F808185B98FE19EE4D9
:1000D0000197F1F700C0000008956AE070E0DFCFFB
:1000E000CF93DF93CDB7DEB728970FB6F894DEBF76
:1000F0000FBECDBF8FEF84B917B88CEF8AB915B892
:1001000018B81BB888E0E0E0F1E0DE01119601903C
:100110000D928A95E1F7CC24C394D12C86B18F70CF
:1001200090E00E944B00369BF9CF06B10F71E02E94
:10013000F12CC7010E944B0089B183702D813E8153
:100140008217130629F489819A8101969A838983FB
:1001500089819A81892B49F31A82198206B10F711C
:1001600010E0C8010E944B0089B183702F8138854F
:100170008217130629F48B819C8101969C838B83C3
:100180008B819C81892B51F31C821B820E0D1F1DBC
:1001900089819A81892B19F01A821982C4CFC801EA
:1001A0000E944B0089B18370813091F7DA82C98255
:1001B000EFCF97FB072E16F4009407D077FD09D0F8
:1001C0000E94ED0007FC05D03EF4909581959F4F6D
:1001D0000895709561957F4F0895AA1BBB1B51E14F
:1001E00007C0AA1FBB1FA617B70710F0A61BB70BA7
:1001F000881F991F5A95A9F780959095BC01CD014C
:060200000895F894FFCF01
:1002060000000000010002003F0006005B004F00F6
:1002160066006D007D0007007F006700F700FF00A5
:0802260039003F00790071006E
:00000001FF
