:020000040000FA
:1000000083120313850186018701A001A101A201CA
:10001000A301A40183160317880189018316031322
:100020007F30850000308600033087008312031381
:1000300005080F39A000A1013D20051F1828051F44
:10004000182805081F39A200A000A1013D20071CA7
:100050001F28051F182805081F39A300A000A101AB
:100060003D20871C2928051F182822082307A000E7
:10007000A1013D20071C33281F280A30851A1030A3
:100080002002031C4628A000A10A3D282008502079
:100090008600861762202108502086006220080012
:1000A00082073F3406345B344F3466346D347D341C
:1000B00007347F346734F734FF3439343F347934CC
:0E00C000713408003230A400A40B642808003C
:02400E00E42F9D
:02401000FF3F70
:00000001FF
