:020000040000FA
:1000000083120313850186018701A001A101A201CA
:10001000A301A40183160317880189018316031322
:100020007F30850000308600033087008312031381
:1000300005080F39A000A1013F20051F1828051F42
:10004000182805081F39A200A000A1013F20071CA5
:100050001F28051F182805081F39A300A000A101AB
:100060003F20871C2928051F182822082307A000E5
:10007000A1013F20071C3328871C33281F280A3082
:10008000851A10302002031C4828A000A10A3F282E
:1000900020085220860086176420210852208600FE
:1000A0006420080082073F3406345B344F346634E2
:1000B0006D347D3407347F346734F734FF3439349A
:1000C0003F347934713408000A30A400A40B662848
:0200D000080026
:02400E00E42F9D
:02401000FF3F70
:00000001FF
