:100000000C9434000C9451000C9451000C94510049
:100010000C9451000C9451000C9451000C9451001C
:100020000C9451000C9451000C9451000C9451000C
:100030000C9451000C9451000C9451000C945100FC
:100040000C9451000C9451000C9451000C945100EC
:100050000C9451000C9451000C9451000C945100DC
:100060000C9451000C94510011241FBECFEFD8E026
:10007000DEBFCDBF11E0A0E0B1E0E2E9F2E002C0F6
:1000800005900D92A230B107D9F721E0A2E0B1E0CE
:1000900001C01D92A430B207E1F70E9478000C94D1
:1000A00047010C94000021E030E080910201909122
:1000B0000301009709F0089515B883B1817281306A
:1000C000A1F73093030120930201EFCF019771F064
:1000D00080E885B91D9B05C015B8109203011092E8
:1000E00002018091020190910301089580E4F1CF13
:1000F00080EC84B915B8C1E0D0E092E0692E712C93
:1001000001E010E026E0E22EF12C35E0C32ED12CE8
:1001100044E0A42EB12C83B18172813021F4D093BC
:100120000301C093020183E0882E912C3BC081E043
:1001300090E00E9466008091020190910301892B5A
:1001400011F40E94530083B18E71883021F47092B3
:1001500001016092000180910001909101010197DD
:1001600031F38091000190910101029719F1809182
:10017000000190910101039791F18091000190910C
:100180000101049709F441C080910001909101019F
:10019000059709F450C080910001909101010697E4
:1001A00009F45FC08091020190910301019709F069
:1001B000B2CFD1CF90E080E00E9466008091020132
:1001C00090910301892B11F40E94530083B18E7129
:1001D000823039F69092010180920001C2CF81E015
:1001E00090E00E9466008091020190910301892BAA
:1001F00011F40E94530083B18E71803109F0B7CFA2
:10020000B0920101A0920001B2CF90E080E00E9484
:1002100066008091020190910301892B11F40E94E4
:10022000530083B18E71843009F0A7CFD0920101C1
:10023000C0920001A2CF81E090E00E946600809110
:10024000020190910301892B11F40E94530083B1A4
:100250008E71883009F098CFF0920101E092000190
:1002600093CF90E080E00E9466008091020190911F
:100270000301892B11F40E94530083B18E718230E7
:1002800009F089CF109301010093000184CFF89405
:02029000FFCF9E
:02029200010069
:00000001FF
