:100000000C9434000C9451000C9451000C94510049
:100010000C9451000C9451000C9451000C9451001C
:100020000C9451000C9451000C9451000C9451000C
:100030000C9451000C9451000C9451000C945100FC
:100040000C9451000C9451000C9451000C945100EC
:100050000C9451000C9451000C9451000C945100DC
:100060000C9451000C94510011241FBECFEFD8E026
:10007000DEBFCDBF12E0A0E0B1E0ECEAF8E002C0E4
:1000800005900D92A634B107D9F722E0A6E4B2E0BC
:1000900001C01D92AC35B207E1F70E9439010C9402
:1000A00054040C940000FC019191911101C0089539
:1000B0002BB12F70892F807F282B2BB9589A599AF2
:1000C00082E08A95F1F700C05998AFE8B1E0119746
:1000D000F1F700C000004BB14F70B0E19B9F900161
:1000E0001124242B2BB9599A82E08A95F1F700C08C
:1000F0005998AFE9BFE01197F1F700C00000D4CFE5
:100100009BB19F70282F207F922B9BB95898599AAA
:1001100042E04A95F1F700C05998EFE8F1E03197D5
:10012000F1F700C000009BB19F70F0E18F9F90013C
:100130001124892F822B8BB9599A42E04A95F1F705
:1001400000C059988FE99FE00197F1F700C00000C7
:1001500008950F931F93CF93DF938B01019709F0BD
:1001600048C080E485B91D9B2EC015B8D0E0C0E022
:1001700083B18072282F30E030935B0220935A02C3
:10018000882381F08091580290915902892B51F473
:10019000209739F480EC0E94800088E091E00E9472
:1001A0005300219680915A0290915B0290935902DC
:1001B00080935802C230D105F1F486E090E090932C
:1001C00055028093540283B18E7180171106D1F4C9
:1001D00080915402909155020597A1F481E090E03E
:1001E0009093550280935402109251021092500243
:1001F00028C080E8B7CF189B02C01D99B9CF189BC3
:10020000B7CFE1CF83B18E7180171106F9F48091D9
:100210005402909155020697C9F41092550210921B
:100220005402109251021092500215B880EC0E94B4
:10023000800089E191E00E945300109257021092D1
:100240005602DF91CF911F910F91089583B18E7166
:1002500080171106B1F780915402909155020196D2
:1002600090935502809354021092530210925202BE
:10027000BBCFCF93DF9300D000D000D0CDB7DEB797
:1002800086E0E2E0F1E0DE01119601900D928A95A0
:10029000E1F780EC84B98EE187B915B818B88FEF13
:1002A0008AB98FE39CE90197F1F700C0000082E072
:1002B0000E94800088E20E9480008CE00E94800002
:1002C00086E00E94800081E00E948000EFE9FFE06C
:1002D0003197F1F700C00000D12CC12C10E000E0F4
:1002E00030E020E0B12CA12CEE24E394F12C73E05B
:1002F000672E712CE5E04E2EF2EB5F2E86B18072F8
:10030000282E312C09F486C0232B09F083C00F5FFF
:100310001F4F043011050CF0A3C00330110509F084
:100320007DC080E80E94800089E191E00E94530036
:1003300056E4852E52E0952E860100FF81C00150C3
:1003400011091595079562E172E0C4010E944D0400
:10035000FFEF8F1A9F0A2EE4821622E0920669F7B9
:10036000E6E4F2E001900020E9F7E754F240CF0123
:1003700095958795BF016A5B7D4FA6E4B2E0615019
:1003800071099D0126543240281739070CF45DC0CD
:1003900080E80E94800086E492E00E945300FFEF14
:1003A000CF1ADF0A03E010E02FEFC216D10411F0DC
:1003B0000CF059C086B18170882E912C99F0AB2831
:1003C00089F480914E0290914F0210925702109240
:1003D00056020196843091050CF048C090934F026C
:1003E00080934E0280914E0290914F02009721F02F
:1003F0000297029708F04AC115BC189B3CC01D9B90
:100400003AC015B880EC0E9480008CE291E00E9416
:10041000530046C00330110509F48ACFF801EE0FEE
:10042000FF1F81E090E08C0F9D1FE80FF91F808077
:10043000918080E80E948000C4010E945300BACFDE
:10044000159507956AE271E080CF4D91FB015081CF
:100450009D0121503109F9015083FB0140838FCF69
:1004600010E000E0DBCFD12CC12CA4CF10924F02C2
:1004700010924E02B7CF189B71C080914E0290919E
:100480004F02009781F480EC0E9480008CE391E0A1
:100490000E94530090E495B9F0925702E092560200
:1004A000910154012BCF0297A9F580EC0E948000A6
:1004B0008CE391E00E945300C7010090000102C04C
:1004C000880F991F0A94E2F788B9EFE1FEE43197AB
:1004D000F1F700C00000C3010090000102C0880FC6
:1004E000991F0A94E2F788B98FE19EE40197F1F72A
:1004F00000C000008091000190910101019690934D
:1005000001018093000105973CF2F0920101E09215
:100510000001C2CF80EC0E9480008CE391E00E9439
:10052000530080910001909101019C012F5F3F4F8A
:100530003093010120930001F70102C0EE0FFF1F6D
:100540008A95E2F7E8B98FE19EE40197F1F700C0E0
:1005500000008091000190910101D5CF1D9B6FC0DB
:1005600080914E0290914F02009751F480EC0E94CE
:1005700080008DE491E00E94530080E885B98CCF23
:100580000297C9F580EC0E9480008DE491E00E9402
:100590005300C7010090000102C0880F991F0A9400
:1005A000E2F788B9EFE1FEE43197F1F700C000000F
:1005B000C3010090000102C0880F991F0A94E2F75E
:1005C00088B98FE19EE40197F1F700C000008091A7
:1005D0000001909101010197909301018093000126
:1005E000181619060CF458CFE4E0F0E0F09301017E
:1005F000E093000151CF80EC0E9480008DE491E0F7
:100600000E94530080910001909101019C012150B2
:1006100031093093010120930001970102C0220F9C
:10062000331F8A95E2F728B98FE19EE40197F1F72D
:1006300000C000008091000190910101D1CF15B858
:100640008091560290915702019731F480EC0E94FC
:1006500080008EE591E0DBCE80914E0290914F02BA
:10066000009731F480EC0E9480008FE691E0CFCEBD
:10067000029731F480EC0E9480008FE791E0C7CEB2
:1006800080EC0E94800080E991E0C1CE45BC56BC60
:100690008091560290915702892B99F4A0904E02B6
:1006A000B0904F0291E0A916B10459F480EC0E9479
:1006B000800081EA91E00E945300B0925702A0921C
:1006C00056028091540290915502892B31F4189B67
:1006D00004C0F0925502E09254028091540290912D
:1006E00055028330910509F468C00CF043C0813095
:1006F000910509F454C0029709F0D2CE80915202BC
:1007000090915302892BA9F415B880EC0E948000C7
:1007100082EC91E00E94530010925102109250021C
:1007200080915202909153020196909353028093CC
:100730005202A89B0BC080915002909151020196E9
:10074000909351028093500256BCA89A8091500217
:10075000909151028C32914009F0A2CE80EC0E941F
:1007600080008DEC91E00E94530064E070E090E026
:1007700080E020C08430910509F455C08730910590
:100780000CF08ECE069709F048C080EC0E948000E5
:1007900084E092E00E94530062E070E0E8CF80ECD9
:1007A0000E94800081EB91E00E94530068E070E0BD
:1007B00081E090E00E94A90073CE80915202909156
:1007C0005302892BA9F415B880EC0E94800088EDB3
:1007D00091E00E94530010925102109250028091B9
:1007E00052029091530201969093530280935202C9
:1007F000A89B0BC08091500290915102019690935A
:1008000051028093500256BCA89A80915002909158
:100810005102843F914009F043CE80EC0E94800059
:1008200083EE91E0B7CF8091520290915302892BD1
:10083000A9F415B880EC0E9480008EEE91E00E9431
:1008400053001092510210925002809152029091E6
:10085000530201969093530280935202A89B0BC0BF
:100860008091500290915102019690935102809391
:10087000500256BCA89A8091500290915102843641
:10088000910509F00DCE80EC0E94800089EF91E087
:100890000E94530060E170E08BCFFB01DC0101900E
:0C08A0000D920020E1F70895F894FFCFBE
:1008AC000100140224023502414C544F2120202017
:1008BC00202020202020202000202020202020204C
:1008CC002020202020202020200030004E6F20707F
:1008DC00756C73617220616D626F73004769726F22
:1008EC002061206C612064657220202000476972B1
:1008FC006F2061206C6120697A7120202000416C8E
:10090C00746F202020202020202020202020004335
:10091C006F6E74726F6C206465206769726F005023
:10092C0061736F2D7061736F204D6564696F50003A
:10093C005061736F20436F6D706C65746F20202055
:10094C0000536572766F206D6563616E69736D6FB0
:10095C00004861636961205333202020202020202F
:10096C0020004C6C65676F20612053330048616335
:10097C0069612053322020004C6C65676F20612028
:10098C0053320048616369612053312020004C6C64
:10099C0065676F20612053310048616369612053A2
:1009AC00342020005265696E6963696F21202D3EE9
:1009BC002053310037524D3320202045717569701A
:1009CC006F203500486F6C612070726F662020209C
:1009DC002020202000506F6E67616E6F73203130C5
:0609EC0020203A29200042
:00000001FF
