:060000000A128A11D32F41
:10000800803083160313AB062F0883120313E50011
:10001800831603132E0883120313E40083160313B5
:100028002D0883120313E300831603132C0883128D
:100038000313E200831603132B0883120313E9004A
:10004800831603132A0883120313E8008316031385
:10005800290883120313E700831603132808831261
:100068000313E6000A168A1126250A128A1183123A
:100078000313650883160313AB0083120313640884
:1000880083160313AA00831203136308831603134A
:10009800A90083120313620883160313A80008003B
:1000A80032308F009B3092003D3083160317D90001
:1000B8004C30D800CC30D700CD30D6000A168A157F
:1000C800C1240A128A11023083120313920091018B
:1000D80012150A168A1570210A128A118F2B83129B
:1000E8000313851E78287928E4283C30E50023305E
:1000F800E400D730E3000A30E200831603175908FA
:1001080083120313E9008316031758088312031395
:10011800E80083160317570883120313E7008316B2
:100128000317560883120313E6000A168A112625B8
:100138000A128A1183120313650883160317D9005C
:1001480083120313640883160317D800831203135A
:10015800630883160317D7008312031362088316F4
:100168000317D6003D30F300CC30F200CC30F1005C
:10017800CD30F0005908F7005808F6005708F50088
:100188005608F4000A168A15F7250A128A11031868
:10019800CE28CF28D9283D3083160317D900CC3074
:1001A800D800CC30D700CD30D6001A3083160313D0
:1001B800B100F730B000B00BDF28B10BDF28E4281E
:1001C80083120313051FE928EA2857293C308316B0
:1001D8000313AB002330AA00D730A9000A30A800C7
:1001E80083160317590883160313AF0083160317E2
:1001F800580883160313AE0083160317570883168F
:100208000313AD0083160317560883160313AC00B7
:100218000A128A1104200A128A11831603132B0862
:1002280083160317D900831603132A0883160317A6
:10023800D80083160313290883160317D7008316DB
:100248000313280883160317D6005908F300580823
:10025800F2005708F1005608F0003D30F7004C3026
:10026800F600CC30F500CD30F4000A168A15F725D3
:100278000A128A110318412942294C293D30831654
:100288000317D9004C30D800CC30D700CD30D60079
:100298001A3083160313B100F730B000B00B52299F
:1002A800B10B522957290A168A15C1240A128A1134
:1002B8000310831203138518031400300318013048
:1002C80083160313B000B1013008DA003108DB00EF
:1002D8005A035B04031D71297229A729831203138A
:1002E8006E086F04031D79297A29A7298316031735
:1002F8002A0883160313B00001300310B00DFF3E27
:10030800031D81290310300DC23E84008316031794
:10031800560883138000840A57088000840A580806
:100328008000840A590880000130AA070318AB0A24
:100338000030AB0705302A062B04031DA429A52984
:10034800A729AA01AB01831603135B0883120313C1
:10035800EF00831603135A0883120313EE00FA0101
:10036800E230FB009830FC0000300A168A1585221E
:100378000A128A11423083120313B100C830B00048
:100388000030AF000030AE008316031759088312FF
:100398000313B50083160317580883120313B40018
:1003A80083160317570883120313B3008316031722
:1003B800560883120313B2000A128A1558210A122A
:1003C8008A1183120313310883160313EF00831273
:1003D8000313300883160313EE00831203132F0848
:1003E80083160313ED00831203132E0883160313D9
:1003F800EC00B23083120313D200AE30D3000A30BF
:10040800D4000030D500831603136F08831203133A
:10041800CB00831603136E0883120313CA008316D6
:1004280003136D0883120313C900831603136C08A2
:1004380083120313C8000A168A15B9230A128A11EF
:10044800831203134908D7004808D600B0300A16AB
:100458008A1599260A128A110530FA00831603179D
:10046800320883160313B0003007903E84008317C8
:100478000008FB00840A00088403FC0000300A1608
:100488008A1585220A128A110630FA008316031784
:10049800300883160313B0003007903E840083179A
:1004A8000008FB00840A00088403FC0000300A16D8
:1004B8008A1585220A128A11FA01D830FB00983071
:1004C800FC0001300A168A1585220A128A11B230F8
:1004D80083120313D200AE30D3000A30D4000030A8
:1004E800D500831603172B0883120313D70083162E
:1004F80003172A0883120313D600B0300A168A1588
:1005080099260A128A110530FA0083160317320851
:1005180083160313B0003007903E84008317000849
:10052800FB00840A00088403FC0001300A168A15BF
:1005380085220A128A110630FA008316031730083A
:1005480083160313B0003007903E84008317000819
:10055800FB00840A00088403FC0001300A168A158F
:1005680085220A128A118316031728032904031DFA
:10057800BE2ABF2A222B0130AA070318AB0A003073
:10058800AB0705302A062B04031DCB2ACC2AE42A04
:10059800AA01AB013D30D9004C30D800CC30D7008F
:1005A800CD30D600A801A9010930FA009230FB002D
:1005B8009830FC0000300A168A1585220A128A1122
:1005C80083160317AC01AD012D08803AFF00803077
:1005D8007F02031DF12A7D302C02031CF42AF52A20
:1005E800F62A222B83120313051EFB2AFC2A0F2B43
:1005F80083160317A801A901AA01AB010930FA0063
:100608009230FB009830FC0000300A168A158522CB
:100618000A128A11222B033083160313B100973074
:10062800B000B00B152BB10B152B01308316031737
:10063800AC070318AD0A0030AD07E82A031083128F
:1006480003138519031400300318013083160313AC
:10065800B000B101300883160317A40083160313F2
:10066800310883160317A50024032504031D3D2B19
:100678003E2B5A2B831603135E085F04031D452B7C
:10068800462B5A2B0930FA009A30FB009830FC00B0
:1006980000300A168A1585220A128A118316031752
:1006A800AA01AB010130A8000030A9008316031786
:1006B800250883160313DF008316031724088316FF
:1006C8000313DE008316031728032904031D6D2B6B
:1006D8006E2B8A2B2A0883160313B00001300310EF
:1006E800B00DFF3E031D732B0310300DC23E840076
:1006F8008313000883160317D600840A0008D7005E
:10070800840A0008D800840A0008D9000A168A1545
:10071800F4210A128A11831603175E085F04031D69
:10072800962B972B73285E085F04031D9C2B9F2B29
:100738000A128A15F12F0A168A1570210A128A11CF
:1007480008308312031395000A128A15FC2F7230A1
:100758008F00043083160317A6000030A700FA01A3
:100768004D30FB009830FC0000300A168A158522AF
:100778000A128A11562C83120313851EC42BC52B0B
:10078800042CFA017530FB009830FC0001300A1681
:100798008A1585220A128A1108308316031726063D
:1007A8002704031DD82BD92BDD2B0430A6000030DD
:1007B800A700013083160313B00083160317260A17
:1007C80083160313E92B0310B00DFF3E031DE72B1F
:1007D80030088312031388001A3083160313B100FC
:1007E800F730B000B00BF62BB10BF62BFB2B01301A
:1007F80083160317A6070318A70A0030A707512C6A
:10080800051F072C082C512CFA017F30FB0098306B
:10081800FC0001300A168A1585220A128A118316ED
:1008280003172708803AFF0080307F02031D1E2C23
:10083800043026020318212C222C282C073083167A
:100848000317A6000030A70083160317260AFF0027
:10085800013083160313B0000030B100362C310D7F
:10086800B10CB00CFF0B332C831603133008831222
:1008780003138800FF3083160317A6070318A70A77
:10088800FF30A7071A3083160313B100F730B00002
:10089800B00B4C2CB10B4C2C512C0A168A15F42198
:1008A8000A128A11831603175E085F04031D5D2C64
:1008B8005E2CBF2B5E085F04031D632C642C9C2BED
:1008C8000A168A11542B72308F007C309200003047
:1008D80083160317D9000030D8000030D700003045
:1008E800D6000A168A155C250A128A11023083126C
:1008F800031392009101121580309F0080308316F7
:1009080003139F00831203139E01831603139E0192
:100918000A168A1570210A128A11D32E0A168A110C
:1009280004200A128A11710883160313EB00700859
:10093800EA006B08F9006A08F800FF30F600033097
:10094800F7000A168A1552230A128A1176088312AA
:100958000313A0007708A1000030A11BFF30A200FC
:10096800A30001300A168A1546270A128A11831233
:100978000313230883160317D900831203132208CD
:1009880083160317D800831203132108831603174D
:10099800D70083120313200883160317D6000A16FC
:1009A8008A155C250A128A11FA01A230FB009830D8
:1009B800FC0000300A168A1585220A128A11B23004
:1009C80083120313A000AE30A100E230A200831608
:1009D80003136B0883120313A400831603136A0816
:1009E80083120313A300B0300A168A1531240A12A1
:1009F8008A11FA01831603136208B0003007903E8B
:100A0800840083170008FB00840A00088403FC00A4
:100A180001300A168A1585220A128A11FA01FA0A81
:100A2800831603172E0883160313B0003007903E71
:100A3800840083170008FB00840A00088403FC0074
:100A480001300A168A1585220A128A110230FA0024
:100A580083160317320883160313B0003007903E3D
:100A6800840083170008FB00840A00088403FC0044
:100A780001300A168A1585220A128A110330FA00F3
:100A880083160317300883160313B0003007903E0F
:100A9800840083170008FB00840A00088403FC0014
:100AA80001300A168A1585220A128A110730FA00BF
:100AB800D430FB009830FC0000300A168A158522D5
:100AC8000A128A11433083120313B1004F30B00069
:100AD8000030AF000030AE008316031759088312A8
:100AE8000313B50083160317580883120313B400C1
:100AF80083160317570883120313B30083160317CB
:100B0800560883120313B2000A128A1558210A12D2
:100B18008A1183120313310883160313E700831223
:100B28000313300883160313E600831203132F08F8
:100B380083160313E500831203132E088316031389
:100B4800E400B23083120313D200AE30D3000A306F
:100B5800D4000030D50083160313670883120313EB
:100B6800CB0083160313660883120313CA00831687
:100B78000313650883120313C9008316031364085B
:100B880083120313C8000A168A15B9230A128A1198
:100B9800831203134908D7004808D600B0300A1654
:100BA8008A1599260A128A110730FA008316031744
:100BB8002E0883160313B0003007903E8400831775
:100BC8000008FB00840A00088403FC0001300A16B0
:100BD8008A1585220A128A110830FA00831603172B
:100BE800320883160313B0003007903E8400831741
:100BF8000008FB00840A00088403FC0001300A1680
:100C08008A1585220A128A110930FA0083160317F9
:100C1800300883160313B0003007903E8400831712
:100C28000008FB00840A00088403FC0001300A164F
:100C38008A1585220A128A110C30FA00DD30FB0071
:100C48009830FC0000300A168A1585220A128A118B
:100C5800403083120313B100C030B0000030AF0041
:100C68000030AE0083160317590883120313B5002A
:100C780083160317580883120313B4008316031747
:100C8800570883120313B3008316031756088312F9
:100C98000313B2000A128A1558210A128A11831204
:100CA8000313310883160313EF008312031330086C
:100CB80083160313EE00831203132F0883160313FE
:100CC800ED00831203132E0883160313EC00B230D1
:100CD80083120313D200AE30D3000A30D4000030A0
:100CE800D500831603136F0883120313CB008316F2
:100CF80003136E0883120313CA00831603136D08C7
:100D080083120313C900831603136C088312031399
:100D1800C8000A168A15B9230A128A118312031306
:100D28004908D7004808D600B0300A168A1599260F
:100D38000A128A110C30FA00831603173208831638
:100D48000313B0003007903E840083170008FB00AF
:100D5800840A00088403FC0001300A168A158522DB
:100D68000A128A110D30FA00831603173008831609
:100D78000313B0003007903E840083170008FB007F
:100D8800840A00088403FC0001300A168A158522AB
:100D98000A128A110A168A15F4210A128A11831670
:100DA80003175E085F04031DDA2EDB2E922C5E0803
:100DB8005F04031DE02EE12E9C2B9F2B32308F0009
:100DC8009B3092003D3083160317D9004C30D80071
:100DD800CC30D700CD30D6000A168A15C1240A12A5
:100DE8008A11023083120313920091011215803088
:100DF8009F008030831603139F00831203139E0104
:100E0800831603139E010A168A1570210A128A1185
:100E1800982F0A168A1104200A128A11710883165B
:100E28000313EB007008EA003D3083120313E5005A
:100E38004C30E400CC30E300CD30E2004430CB004D
:100E48007F30CA00C030C9000030C8003F30B10050
:100E58007330B0003330AF003330AE008316031365
:100E68006A0883120313A000831603136B08831206
:100E78000313A1000030A11BFF30A200A300013022
:100E88000A168A1546270A128A11831203132308A1
:100E9800B5002208B4002108B3002008B2000A12E5
:100EA8008A1558210A128A11831203133108CF00B8
:100EB8003008CE002F08CD002E08CC000A168A1163
:100EC80057230A128A11831203134B08E9004A08B0
:100ED800E8004908E7004808E6000A168A112625AE
:100EE8000A128A1183120313650883160317D9009F
:100EF80083120313640883160317D800831203139D
:100F0800630883160317D700831203136208831636
:100F18000317D6000A168A15C1240A128A110A165E
:100F28008A15F4210A128A11831603175E085F04D2
:100F3800031D9F2FA02F0D2F5E085F04031DA52FF3
:100F4800A62F9C2B9F2B831603136908003A0319BD
:100F5800B02F0A128A15FD2F6808003A0319CA2F04
:100F6800013A0319CD2F033A0319D02F013A031977
:100F78005428073A0319AB2B013A0319672C033A93
:100F88000319E22EAD2F0A128A1100280A128A15B7
:100F980034280A168A118C290A128A159D2C83175F
:100FA800D630FD001930FE008630FF00B4308400D2
:100FB8000A168A154D210A128A112430FD001930AB
:100FC800FE005C30FF00103084000A168A154D219F
:100FD8000A128A1183160317D601D701D801D9013D
:100FE800DA01DB01DC01DD01DE01DF01E001E10105
:100FF80083010A168A112E288316031386013430BA
:10100800F400F130F300F30B0728F40B07280C2841
:1010180002300A168A1523220A128A1528300A165F
:101028008A1523220A128A150C300A168A152322D9
:101038000A128A1506300A168A1523220A128A15F8
:1010480001300A168A1523220A128A150630F4007E
:101058003030F300F30B2E28F40B2E280000080084
:1010680072308F008B288701FA015B30FB009830C3
:10107800FC0000300A168A1585220A128A15FA0120
:101088006830FB009830FC0001300A168A1585226A
:101098000A128A150310831203130519031400306A
:1010A8000318013083160313B000B101300883160A
:1010B8000317DA0083160313310883160317DB00BE
:1010C8005A035B04031D69286A2887285C085D04A5
:1010D800031D6F28702887285E085F040319752888
:1010E800772801307828003083160313B000B10147
:1010F800300883160317DE0083160313310883169E
:101108000317DF0091285B08DD005A08DC00831212
:101118000313851D902891283728831603175E0826
:101128005F04031D98289928A7280A168A15702194
:101138000A128A15013083160317DC000030DD001F
:101148000A168A118129831203130716FA0121301E
:10115800FB009830FC0000300A168A1585220A1216
:101168008A1583160317AC01AD012D08803AFF00DC
:1011780083307F02031DC228E8302C02031CC528D7
:10118800C628C728E82883120313051ECC28CD28B3
:10119800D428013083160317A8000030A900E828D6
:1011A8001A3083160313B100F730B000B00BDA28F9
:1011B800B10BDA28DF28013083160317AC070318B0
:1011C800AD0A0030AD07B928831603172803290490
:1011D800031DEF28F028F828A801A9010A168A1586
:1011E80070210A128A15A428831203138716FA019C
:1011F8003030FB009830FC0001300A168A15852231
:101208000A128A1583160317AC01AD012D08803A1E
:10121800FF0083307F02031D1329E8302C02031CD2
:10122800162917291829392983120313051E1D2980
:101238001E292529013083160317A8000030A900AC
:101248003929063083160313B1002F30B000B00BD4
:101258002B29B10B2B293029013083160317AC0732
:101268000318AD0A0030AD070A29831603172803AF
:101278002904031D402941294229F02820308312DE
:1012880003138700FA011130FB009830FC0000308E
:101298000A168A1585220A128A1583120313051E57
:1012A800562957295129F228831203133108803906
:1012B800BB003108B6003607C100B01F6429652994
:1012C80066294114410803196A296B297A29410AB8
:1012D800031D6F29702978290030B1000030B00053
:1012E8000030AF000030AE00B01782290030B100E6
:1012F8000030B0000030AF000030AE003508803953
:10130800FF007F08BB063508B6003607C000B41FCB
:101318008E298F299029401440080319942995296A
:10132800A429400A031D99299A29A2290030B50049
:101338000030B4000030B3000030B200B417AC295C
:101348000030B5000030B4000030B3000030B20007
:1013580040080319B029B129B6294108031DB52948
:10136800B629BF290030B1000030B0000030AF000E
:101378000030AE009C2C2E08F00034080A168A159E
:10138800CD210A128A15710883120313C700700849
:10139800C6004608B600B701B801B9013908BF0050
:1013A8003808BE003708BD003608BC004708B6003C
:1013B800B701B801B9013908C5003808C4003708B1
:1013C800C3003608C2002F08F00033080A168A1531
:1013D800CD210A128A15710883120313C7007008F9
:1013E800C6004608B600B701B801B9013608BC07FF
:1013F800370803110318013E0319032ABD073808EB
:1014080003110318013E03190A2ABE0739080311FC
:101418000318013E0319112ABF074708B600B70190
:10142800B801B9013608C207370803110318013E8D
:1014380003191F2AC307380803110318013E0319AB
:10144800262AC407390803110318013E03192D2A57
:10145800C5073008F00032080A168A15CD210A128D
:101468008A15710883120313C7007008C60046085E
:10147800B600B701B801B9013608BC07370803112F
:101488000318013E0319492ABD0738080311031838
:10149800013E0319502ABE07390803110318013EFB
:1014A8000319572ABF074708B600B701B801B901A1
:1014B8003608C207370803110318013E0319652AC5
:1014C800C307380803110318013E03196C2AC4071F
:1014D800390803110318013E0319732AC507083098
:1014E800B6000310BC0DBD0DBE0DBF0DB60B752AA1
:1014F8002F08F00032080A168A15CD210A128A151B
:10150800710883120313C7007008C6004608B600A6
:101518004708B700B801B9013608BC0737080311F6
:101528000318013E0319992ABD0738080311031847
:10153800013E0319A02ABE07390803110318013E0A
:101548000319A72ABF072E08F00033080A168A15C0
:10155800CD210A128A15710883120313C700700877
:10156800C6004608B6004708B700B801B9013608F2
:10157800BC07370803110318013E0319C42ABD0725
:10158800380803110318013E0319CB2ABE0739088E
:1015980003110318013E0319D22ABF070830B60009
:1015A8000310BC0DBD0DBE0DBF0DB60BD42A2E0801
:1015B800F00032080A168A15CD210A128A15710818
:1015C80083120313C7007008C6004608B600470810
:1015D800B700B801B9013608BC073708031103186A
:1015E800013E0319F82ABD07380803110318013E04
:1015F8000319FF2ABE07390803110318013E03190E
:10160800062BBF072F08F00034080A168A15CD21CB
:101618000A128A15710883120313C7007008C600DE
:101628004608B6004708B700B801B9013608C2072E
:10163800370803110318013E0319232BC307380881
:1016480003110318013E03192A2BC4073908031193
:101658000318013E0319312BC5073008F000330881
:101668000A168A15CD210A128A15710883120313E6
:10167800C7007008C6004608B6004708B700B8019A
:10168800B9013608C207370803110318013E0319C8
:101698004E2BC307380803110318013E0319552BB5
:1016A800C407390803110318013E03195C2BC50749
:1016B8003008F00034080A168A15CD210A128A1556
:1016C800710883120313C7007008C6004608B600E5
:1016D8004708B700B801B90108300310B60DB70DB7
:1016E800B80DB90DFF3E031D712B3608C207370828
:1016F80003110318013E0319822BC307380803118D
:101708000318013E0319892BC4073908031103186C
:10171800013E0319902BC5073C08B6003D08B700E9
:101728003E08B8003F08B90018300310B90CB80CCF
:10173800B70CB60CFF3E031D992B3608C2073708B5
:1017480003110318013E0319AA2BC3073808031114
:101758000318013E0319B12BC407390803110318F4
:10176800013E0319B82BC5070830B6000310BC0D9D
:10177800BD0DBE0DBF0DB60BBA2B41084007B60014
:10178800B701B70D3608823EC60037080318013E78
:10179800FF3EC700EC2B0130B6000310C20DC30D8D
:1017A800C40DC50DB60BD12BBF1FDB2BDC2BDD2BDE
:1017B80042140130B6000310BC0DBD0DBE0DBF0DA7
:1017C800B60BDF2BFF30C6070318C70AFF30C70761
:1017D800C41FEF2BF02BCF2BC001BF1FF42BF52B11
:1017E800112CFF303C05B600FF303D05B700FF3037
:1017F8003E05B8007F303F05B90039083804370482
:1018080036040319082C092C0C2CC001C00A112C11
:10181800421C0F2C102C112C092C40080319152CD4
:10182800162C472C0130C207003003180130C307BB
:10183800003003180130C407003003180130C50711
:10184800451C272C282C472C4208B6004308B70013
:101858004408B8004508B9000130BA00390DB90C80
:10186800B80CB70CB60CBA0B322C3908C5003808BE
:10187800C4003708C3003608C2000130C607031881
:10188800C70A0030C7074708803AFF0080307F0248
:10189800031D502CFF304602031C532C542C5F2C84
:1018A8007F3083120313C5008030C4000030C300AA
:1018B8000030C200902C831203134708803AFF00BF
:1018C80080307F02031D6A2C0130460203186D2CFC
:1018D8006E2C7A2C003083120313C5000030C4002C
:1018E8000030C3000030C200BB01902C83120313E8
:1018F8004608C100FF30C205FF30C3057F30C4056C
:101908000030C505411C892C8A2C8B2CC417410832
:10191800B6000310360CC5003B08FF007F08C5045D
:101928004508B1004408B0004308AF004208AE00C3
:10193800080072308F007C30920000308316031745
:10194800D9000030D8000030D7000030D6000A1681
:101958008A155C250A128A15023083120313920035
:10196800910112150A168A1570210A128A15E42F98
:1019780083120313851EC12CC22C222D3C30E50096
:101988002330E400D730E3000A30E200831603175F
:10199800590883120313E9008316031758088312A2
:1019A8000313E80083160317570883120313E7008D
:1019B80083160317560883120313E6000A168A11C2
:1019C80026250A128A15831203136508831603173E
:1019D800D90083120313640883160317D8008312EF
:1019E8000313630883160317D700831203136208CF
:1019F80083160317D6003F30F3008030F200003022
:101A0800F1000030F0005908F7005808F6005708B0
:101A1800F5005608F4000A168A15F7250A128A15E1
:101A28000318172D182D222D3F3083160317D900C0
:101A38008030D8000030D7000030D600831203135E
:101A4800051F272D282D8A2D3C3083160313AB0044
:101A58002330AA00D730A9000A30A800831603173C
:101A6800590883160313AF00831603175808831603
:101A78000313AE0083160317570883160313AD002C
:101A880083160317560883160313AC000A128A112B
:101A980004200A128A15831603132B0883160317CA
:101AA800D900831603132A0883160317D800831650
:101AB8000313290883160317D7008316031328086E
:101AC80083160317D6000030F3000030F200003010
:101AD800F1000030F0005908F7005808F6005708E0
:101AE800F5005608F4000A168A15F7250A128A1511
:101AF800031C7F2D802D8A2D003083160317D900F3
:101B08000030D8000030D7000030D6000A168A15F9
:101B18005C250A128A150630FA00D430FB0098308A
:101B2800FC0000300A168A1585220A128A154330ED
:101B380083120313B1004F30B0000030AF00003003
:101B4800AE0083160317590883120313B5008316D2
:101B58000317580883120313B40083160317570892
:101B680083120313B3008316031756088312031353
:101B7800B2000A128A1558210A128A158312031311
:101B8800310883160313E700831203133008831602
:101B98000313E600831203132F0883160313E500CB
:101BA800831203132E0883160313E400B230831242
:101BB8000313D200AE30D3000A30D4000030D50071
:101BC80083160313670883120313CB0083160313CA
:101BD800660883120313CA00831603136508831269
:101BE8000313C90083160313640883120313C80080
:101BF8000A168A15B9230A128A158312031349088B
:101C0800D7004808D600B0300A168A1599260A1255
:101C18008A150630FA00831603172E088316031355
:101C2800B0003007903E840083170008FB00840A48
:101C380000088403FC0001300A168A1585220A125E
:101C48008A150730FA008316031732088316031320
:101C5800B0003007903E840083170008FB00840A18
:101C680000088403FC0001300A168A1585220A122E
:101C78008A150830FA0083160317300883160313F1
:101C8800B0003007903E840083170008FB00840AE8
:101C980000088403FC0001300A168A1585220A12FE
:101CA8008A15FA01D330FB009830FC0000300A1680
:101CB8008A1585220A128A15433083120313CB0032
:101CC8004F30CA000030C9000030C8004230B100AF
:101CD800C830B0000030AF000030AE0083160313E8
:101CE800670883120313B50083160313660883126B
:101CF8000313B40083160313650883120313B30098
:101D080083160313640883120313B2000A128A1598
:101D180058210A128A15831203133108CF0030089C
:101D2800CE002F08CD002E08CC000A168A115723A2
:101D38000A128A15831203134B0883160313D9005A
:101D4800831203134A0883160313D800831203135C
:101D5800490883160313D700831203134808831610
:101D68000313D600B23083120313D200AE30D3006F
:101D78000A30D4000030D5008316031359088312A3
:101D88000313CB0083160313580883120313CA00E6
:101D980083160313570883120313C900831603130A
:101DA800560883120313C8000A168A15B9230A12A3
:101DB8008A15831203134908D7004808D600B030A3
:101DC8000A168A1599260A128A15FA01FA0A83163A
:101DD80003172E0883160313B0003007903E8400C3
:101DE80083170008FB00840A00088403FC00013004
:101DF8000A168A1585220A128A150230FA008316F5
:101E08000317320883160313B0003007903E84008E
:101E180083170008FB00840A00088403FC000130D3
:101E28000A168A1585220A128A150330FA008316C3
:101E38000317300883160313B0003007903E840060
:101E480083170008FB00840A00088403FC000130A3
:101E58000A168A1585220A128A150B30FA00DD3017
:101E6800FB009830FC0000300A168A1585220A12F9
:101E78008A15403083120313B100C030B00000301F
:101E8800AF000030AE0083160317590883120313FE
:101E9800B50083160317580883120313B40083167A
:101EA8000317570883120313B30083160317560842
:101EB80083120313B2000A128A1558210A128A15CE
:101EC80083120313310883160313EF0083120313DD
:101ED800300883160313EE00831203132F088316AA
:101EE8000313ED00831203132E0883160313EC006B
:101EF800B23083120313D200AE30D3000A30D400BC
:101F08000030D500831603136F0883120313CB0028
:101F1800831603136E0883120313CA008316031370
:101F28006D0883120313C900831603136C08831208
:101F38000313C8000A168A15B9230A128A158312D0
:101F480003134908D7004808D600B0300A168A1586
:101F580099260A128A150C30FA00831603173208DC
:101F680083160313B0003007903E840083170008DF
:101F7800FB00840A00088403FC0001300A168A1555
:101F880085220A128A150D30FA00831603173008C5
:101F980083160313B0003007903E840083170008AF
:101FA800FB00840A00088403FC0001300A168A1525
:101FB80085220A128A150A168A15F4210A128A1528
:101FC800831603175E085F04031DEB2FEC2FBC2C50
:101FD8005E085F04031DF12FF42F0A168A11812968
:101FE8000A168A1570210A128A15831203139B0197
:081FF80012110A128A15A42837
:102008000130F2000030831203139F180130013EA3
:102018000F280310F20DFF3E031D0D280130F300B9
:1020280000301F180130013E1B280310F30DFF3E3E
:10203800031D192873087204FF007F089F049F1866
:102048002628272823281E08F100831603131E08B4
:10205800F0000800B4308400C83083160313B000C1
:102068000408B1000E30B20030088400831700085D
:10207800B300B00A31088400831333088000B10A22
:10208800B20B3828903084001030B0000408B1003A
:102098001430B2003008840083170008B300B00A77
:1020A8003108840033088000B10AB20B4E28E801D9
:1020B800E901DE01DF0183120313EE01EF0183164C
:1020C8000317AC01AD01A801A901AA01AB01A60142
:1020D800A70183160313EA01EB01E001E101DC012A
:1020E800DD0183160317B001B101B201B301AE01DE
:1020F800AF0183160313E201E3010030D900003079
:10210800D8000030D7000030D6000030E70000309B
:10211800E6000030E5000030E4000030EF00003059
:10212800EE000030ED000030EC00C2308400B43026
:10213800B0000408B1001430B200300884008317DE
:102148000008B300B00A3108840083133308800004
:10215800B10AB20BA1280130831603178800890140
:10216800FF3083160313850087010F308800831220
:1021780003138701850188010A128A1500200A16AF
:102188008A1181297230831603138F00FA010030F7
:10219800FB009830FC0000300A168A1585220A16C2
:1021A8008A11FA018930FB009830FC0001300A16C8
:1021B8008A1585220A168A110310831203138518BB
:1021C800031400300318013083160313B000B10163
:1021D800300883160317A4008316031331088316E7
:1021E8000317A50024032504031DFB28FC281B292D
:1021F800831603135E085F04031D032904291B29A2
:102208000130E8070318E90A0030E9076908803A4D
:10221800FF0080307F02031D132907306802031C6A
:10222800162917291B2983160313E801E901093028
:10223800FA00831603136808B0003007B43E840020
:1022480083130008FB00840A00088403FC000130A3
:102258000A168A1585220A168A1183160317250875
:1022680083160313DF00831603172408831603134A
:10227800DE0003108312031305190314003003183A
:10228800013083160313B000B10130088316031719
:10229800DA0083160313310883160317DB005A0389
:1022A8005B04031D582959297A295C085D04031D1C
:1022B8005E295F297A295E085F0403196429662963
:1022C80001306729003083160313B000B1013008CC
:1022D80083160317DE0083160313310883160317CA
:1022E800DF000A168A1570210A168A118316031749
:1022F8005B08DD005A08DC008129831603175E0895
:102308005F04031988298929C6280A128A11A72F68
:1023180072308F00FA013F30FB009830FC0000302B
:102328000A168A1585220A168A112C2A08080F39D6
:1023380083160313B000B1013008E0003108E10052
:10234800B23083120313D200AE30D3000830D40069
:102358000030D50083160313610883120313D700D6
:1023680083160313600883120313D600B0300A16CD
:102378008A1599260A168A11FA0183160317320854
:1023880083160313B0003007903E840083170008BB
:10239800FB00840A00088403FC0001300A168A1531
:1023A80085220A168A11FA01FA0A831603173008D9
:1023B80083160313B0003007903E8400831700088B
:1023C800FB00840A00088403FC0001300A168A1501
:1023D80085220A168A1103108312031305190314A0
:1023E80000300318013083160313B000B101300820
:1023F80083160317DA0083160313310883160317AD
:10240800DB005A035B04031D0A2A0B2A282A5C08EE
:102418005D04031D102A112A282A5E085F04031987
:10242800162A182A0130192A003083160313B0001F
:10243800B101300883160317DE0083160313310831
:1024480083160317DF00322A5B08DD005A08DC0018
:1024580083120313851D312A322A9A2983160317FA
:102468005E085F04031D392A3A2A3D2A0A128A1592
:1024780099280230FA00E630FB009830FC00013061
:102488000A168A1585220A168A11DD2A08080F39C4
:1024980083160313B000B1013008DC003108DD00F9
:1024A800B23083120313D200AE30D3000830D40008
:1024B8000030D500831603135D0883120313D70079
:1024C800831603135C0883120313D600B0300A1670
:1024D8008A1599260A168A110330FA0083160317FB
:1024E800320883160313B0003007903E8400831728
:1024F8000008FB00840A00088403FC0001300A1667
:102508008A1585220A168A110430FA0083160317E1
:10251800300883160313B0003007903E84008317F9
:102528000008FB00840A00088403FC0001300A1636
:102538008A1585220A168A110310831203130519B6
:10254800031400300318013083160313B000B101DF
:10255800300883160317DA0083160313310883162D
:102568000317DB005A035B04031DBB2ABC2AD92AC4
:102578005C085D04031DC12AC22AD92A5E085F04CB
:102588000319C72AC92A0130CA2A0030831603133F
:10259800B000B101300883160317DE008316031359
:1025A800310883160317DF00E52A5B08DD005A08A7
:1025B800DC001830831203130506031DE42AE52AFC
:1025C8004A2A831603175E085F04031DEC2AED2AC6
:1025D800EE2A3A2A0530FA00F830FB009830FC0061
:1025E80001300A168A1585220A168A1183160313E2
:1025F8005C08E0070318E10A5D08E107B2308312BE
:102608000313D200AE30D3000830D4000030D50018
:1026180083160313610883120313D7008316031369
:10262800600883120313D600B0300A168A1599265B
:102638000A168A110630FA00831603173208831621
:102648000313B0003007903E840083170008FB0096
:10265800840A00088403FC0001300A168A158522C2
:102668000A168A110730FA008316031730088316F2
:102678000313B0003007903E840083170008FB0066
:10268800840A00088403FC0001300A168A15852292
:102698000A168A1183120313851C532B542B4E2BB5
:1026A8000A128A15F228831203134F088039D900B9
:1026B8004F08D0005007E000CE1F632B642B652B1A
:1026C800601460080319692B6A2B7A2B600A031DB2
:1026D8006E2B6F2B772B0030CF000030CE000030F0
:1026E800CD000030CC00CE17CF01822B0030CF00B8
:1026F8000030CE000030CD000030CC004B088039CF
:10270800FF007F08D9064B08D0005007E100CA1F18
:102718008E2B8F2B902B611461080319942B952B0A
:10272800A52B610A031D992B9A2BA22B0030CB00F5
:102738000030CA000030C9000030C800CA17CB01F9
:10274800AD2B0030CB000030CA000030C90000308B
:10275800C8004B084A0449044804031DB42BB52B90
:10276800CE2B0030CF000030CE000030CD0000303E
:10277800CC008030CE047F30CF045908FF007F089A
:10278800CF044F08CB004E08CA004D08C9004C08BA
:10279800C800252D6008031DD22BD32BDC2B00305D
:1027A800CB000030CA000030C9000030C800252D19
:1027B8006008D000D1015108D30061085002D2004E
:1027C800031CD30352087F3EDA0053080318013E66
:1027D800003EDB004F08D8004E08D7004D08D60051
:1027E8004C08D5000030CF000030CE000030CD00BE
:1027F8000030CC000030DF000030DE000030DD00AB
:102808000030DC00E101522C610803190C2C0D2C5E
:102818002D2C0130D0000310D50DD60DD70DD80DB5
:10282800D00B0F2C0130D0000310CC0DCD0DCE0DE8
:10283800CF0DD00B182CDF1F222C232C242C4C144A
:102848000130D0000310DC0DDD0DDE0DDF0DD00BE7
:10285800262C4B085802031D3B2C4A085702031D1F
:102868003B2C49085602031D3B2C48085502031C03
:102878003E2C3F2C4E2C5F174808D5024908031CF4
:10288800490FD6024A08031C4A0FD7024B08031CFB
:102898004B0FD8020130FF007F08E1071A306102B0
:1028A800031C572C582C082C580857045604550458
:1028B80003195F2C602C7F2C5C147F2C0130D00016
:1028C8000310CC0DCD0DCE0DCF0DD00B642CDF1F1A
:1028D8006E2C6F2C702C4C140130D0000310DC0DC2
:1028E800DD0DDE0DDF0DD00B722CFF30DA0703187B
:1028F800DB0AFF30DB07CE1F822C832C622CE10120
:10290800DF1F872C882CA42CFF305C05D000FF30FB
:102918005D05D100FF305E05D2007F305F05D30032
:10292800530852045104500403199B2C9C2C9F2CCF
:10293800E101E10AA42C4C1CA22CA32CA42C9C2C55
:1029480061080319A82CA92CDA2C0130CC07003017
:1029580003180130CD07003003180130CE070030CE
:1029680003180130CF074F1CBA2CBB2CDA2C4C08AB
:10297800D0004D08D1004E08D2004F08D3000130D6
:10298800D400530DD30CD20CD10CD00CD40BC52CC5
:102998005308CF005208CE005108CD005008CC0093
:1029A8000130DA070318DB0A0030DB075B08803ADE
:1029B800FF0080307F02031DE32CFF305A02031C06
:1029C800E62CE72CF52CFF3083120313DA000030D5
:1029D800DB000030CF000030CE000030CD000030EA
:1029E800CC00831203135B08803AFF0080307F021B
:1029F800031D002D01305A020318032D042D112D3B
:102A080083120313DA01DB010030CF000030CE005F
:102A18000030CD000030CC00D901831203135A08CE
:102A2800E000601C182D192D1B2DCE171F2D7F308F
:102A3800FF007F08CE056008D0000310500CCF00BF
:102A4800C12B08008312031365088039EA00650862
:102A580083160313A000200783120313EC00E41F5E
:102A6800362D372D382D6C146C0803193C2D3D2D4F
:102A78004D2D6C0A031D412D422D4A2D0030E500D5
:102A88000030E4000030E3000030E200E417E50124
:102A9800552D0030E5000030E4000030E300003040
:102AA800E20069088039EB006B086A0603195D2D9E
:102AB8005E2D5F2D6A17690883160313A00020078F
:102AC80083120313EB00E81F6A2D6B2D6C2D6B141A
:102AD8006B080319702D712D812D6B0A031D752D3F
:102AE800762D7E2D0030E9000030E8000030E70048
:102AF8000030E600E817E901892D0030E9000030D0
:102B0800E8000030E7000030E6006C086B020318AC
:102B18008E2D8F2DB52D6A1F922D932D972D8030D8
:102B2800FF007F08EA066C08ED006B08EC006D08F2
:102B3800EB006208ED006608E2006D08E600630835
:102B4800ED006708E3006D08E7006408ED00680819
:102B5800E4006D08E8006508ED006908E5006D0807
:102B6800E900ED016B0883160313A000A1012108F9
:102B7800A300831203136C08831603132002A20018
:102B8800031CA3032308803AFF0080307F02031D43
:102B9800CF2D1A302202031CD22DD32D162E8312CC
:102BA80003136508640463046204031DDC2DDE2D31
:102BB8000130DF2D0030ED000030E5000030E4008A
:102BC8000030E3000030E2006B08EC001E2E6D1CA4
:102BD800EE2DEF2DFA2D6D0883160313A0000310B8
:102BE800200C013883120313ED00FC2D0310ED0CAB
:102BF800621CFF2D002E012EED17013083160313E2
:102C0800A00083120313650DE50CE40CE30CE20C41
:102C180083160313A00B052E0130FF007F088312D3
:102C28000313EC07831203136B086C02031C1D2E9D
:102C38001E2EEB2D6A1B212E222E772E6C08031DCB
:102C4800262E272E302E0030E5000030E40000301C
:102C5800E3000030E200FF2F6608E207670803116F
:102C68000318013E0319392EE307680803110318F6
:102C7800013E0319402EE407690803110318013EB9
:102C88000319472EE507651C4A2E4B2E672F6D1C2E
:102C98004E2E4F2E5A2E6D0883160313A0000310D4
:102CA800200C013883120313ED005C2E0310ED0C89
:102CB800621C5F2E602E612EED1701308316031300
:102CC800A00083120313650DE50CE40CE30CE20C81
:102CD80083160313A00B652E0130FF007F088312B3
:102CE8000313EC07672F6508803AFF006908803AEC
:102CF8007F02031D892E68086402031D892E670858
:102D08006302031D892E6608620203188C2E8D2E1D
:102D1800192FFF3083160313A000FF30A100FF30E6
:102D2800A200FF30A300831203136608831603135F
:102D3800A40083120313670883160313A5008312E4
:102D48000313680883160313A60083120313690884
:102D580083160313A7008312031362088316031351
:102D6800A402831203136308031C630FBC2EBF2E37
:102D780083160313A502831203136408031C640F4C
:102D8800C62EC92E83160313A602831203136508E1
:102D9800031C650FD02ED32E83160313A7028312AC
:102DA8000313831603132408A00725080318250F07
:102DB800DE2EDF2EA10726080318260FE42EE52EA7
:102DC800A20727080318270AA30723088312031357
:102DD800E50083160313220883120313E400831605
:102DE8000313210883120313E30083160313200837
:102DF80083120313E2008030FF007F08EA06ED0922
:102E0800ED0A6D08031D092F0A2F272F0130E2074D
:102E1800003003180130E307003003180130E407DD
:102E2800003003180130E507272F6608E20267081B
:102E3800031C670FE3026808031C680FE4026908B3
:102E4800031C690FE5026508640463046204031D3A
:102E58002E2F2F2F632F6D08031D332F342F632F31
:102E68000030E5000030E4000030E3000030E2000C
:102E7800FF2F013083160313A000031083120313DE
:102E8800E20DE30DE40DE50D83160313A00B412FAE
:102E980083120313ED1F512F522F532F62146D1CF1
:102EA800562F572F5A2F0314ED0D5C2F0310ED0DDD
:102EB8006C080319602F612F632F0130EC02E41FA7
:102EC800662F672F3D2FEB01ED1F6B2F6C2F7A2F8D
:102ED8006D087F390319712F722F752FEB01EB0ADB
:102EE8007A2F621C782F792F7A2F722F6B0803198B
:102EF8007E2F7F2FCF2F0130E207003003180130DB
:102F0800E307003003180130E407003003180130EC
:102F1800E507651C902F912FCF2F620883160313A6
:102F2800A00083120313630883160313A1008312FE
:102F38000313640883160313A2008312031365089E
:102F480083160313A3000130A400230DA30CA20CC5
:102F5800A10CA00CA40BA92F230883120313E500CE
:102F680083160313220883120313E4008316031342
:102F7800210883120313E300831603132008831226
:102F88000313E2006C0A0319CA2FCB2FCF2F01308D
:102F9800FF007F08EC076C0A0319D32FD42FD92F11
:102FA8006C08031DD82FD92FE72F0030E50000301B
:102FB800E4000030E3000030E2006C08031DE52F58
:102FC800E62FE72FEA016C1CEA2FEB2FED2FE41711
:102FD800F12F7F30FF007F08E4056C088316031388
:102FE800A0000310200C83120313E500EA1FFD2F35
:102FF800FE2FFF2FE5170800533465346C34653411
:103008006334633469346F346E3461347234203419
:10301800703472346134633400344D3431342034C4
:10302800203420344134703461346734613464347A
:103038006F3420342034203400344D34313420347B
:103048002034203445346E34633465346E3464344B
:10305800693464346F3400344D34323420342034CD
:10306800203445346E34633465346E3464346934E2
:1030780064346F340034533475346D34613420341F
:1030880065346E3420346F346334743461346C3492
:1030980000344D346F3474346F34723420346134F6
:1030A80020345034613473346F34733400344D3405
:1030B800313420342034203441347034613467345E
:1030C800613464346F3400344D3432342034203465
:1030D80020344134703461346734613464346F347B
:1030E800003444346534723465346334683461348C
:1030F80020342034003449347A34713475346934D6
:103108006534723464346134003450347234613458
:1031180063347434693463346134003420342034C3
:1031280020342034203420342034003452346534A0
:10313800703420344D346F3476340034563461346E
:103148006C3441346E3467340034313432342034D2
:1031580020342034003431343334203420342034C3
:1031680000343134343420342034203400343134C1
:10317800353420342034203400343134363420348B
:10318800203420340034313431342034453431345F
:103198000034313431342034453432340034253469
:1031A800523450344D340034233450346F34733433
:1031B800003456346F346C3474340034253443345A
:1031C800543400342B340034303400343334003475
:1031D8003434003435340034363400343734003471
:0C31E80038340034393400343D340034F5
:10320000FF1B0A2983137F1883170008840A0319F8
:10321000FF0A08007F087F398A000408840A03191E
:04322000FF0A82001F
:103292007E088A007F0882000A168A1549210A16CA
:1032A2008A158000840A04087D0603190034FF0A87
:1032B2000319FE0A4D29E8349834CB349834D134BA
:1032C2009834EA349834EC349834EE349834F03448
:1032D2009834F2349834F4349834F6349834013013
:1032E2000A168A1523220A168A150630F40030308F
:1032F200F300F30B7A29F40B7A29000080300A16C6
:103302008A1523220A168A150800CD34CC344C348F
:103312003D34CD34CC344C343D34CD34CC344C34C7
:103322003D34CD34CC344C343D34CD34CC344C34B7
:103332003D34C7349834CD349834A9349834AF34FA
:103342009834B5349834BB349834C1349834F40189
:10335200F501701CAD29AE29B4297208F4070318CF
:10336200F50A7308F50701300310F20DF30DFF3E65
:10337200031DB52901300310F10CF00CFF3E031DB3
:10338200BC2970087104031DC729C829AA29750818
:10339200F1007408F0000800F800F401F50170086B
:1033A200F200F3017208F6007308F700781CDA29BC
:1033B200DB29E1297608F4070318F50A7708F507EF
:1033C20001300310F60DF70DFF3E031DE229031035
:1033D200F80C7808031DEE29EF29D7297508F100AA
:1033E2007408F00008000310831203130519031474
:1033F200003003180130F000F10170088316031742
:10340200DA007108DB005A035B04031D092A0A2A49
:103412001E2A5C085D04031D0F2A102A1E2A5E085C
:103422005F040319152A172A0130182A0030F00008
:10343200F1017008DE007108DF005B08DD005A0848
:10344200DC000800F2007208F0390238831203131C
:1034520086002B2AFD30FF007F08831203138605A6
:103462000D30F000F00B332A7208F0000330031025
:10347200F00DFF3E031D382A0310700D023883122F
:1034820003138600442AFD30FF007F0883120313D2
:1034920086050330F1009730F000F00B4E2AF10B55
:1034A2004E2A532A0800F2007208F03903388312B8
:1034B200031386005C2AFD30FF007F08831203138A
:1034C20086050D30F000F00B642A7208F00003301C
:1034D2000310F00DFF3E031D692A0310700D03381F
:1034E200831203138600752AFD30FF007F088312C2
:1034F200031386050330F1009730F000F00B7F2AAA
:10350200F10B7F2A842A0800FD007D08031D8A2A08
:103512008B2A9A2A10307A020318902A912A9A2A20
:103522007A080F3980380A168A1523220A168A1554
:10353200AD2A7D03031D9E2A9F2AAD2A10307A02EE
:103542000318A42AA52AAD2A7A080F39C0380A1608
:103552008A1523220A168A157B08F3007C08F400D8
:103562000A168A15B7220A168A150800F801F90107
:10357200DC2A78087307F6007408F5000318F50AC8
:10358200F81FC42AF5037508F7007708831203139E
:10359200FF00760884000A168A1500210A168A1589
:1035A2000A168A1554220A168A150130F8070318DA
:1035B200F90A0030F90778087307F6007408F50075
:1035C2000318F50AF81FE62AF5037508F7007708CD
:1035D20083120313FF00760884000A168A1500215D
:1035E2000A168A15003A031DF72AF82ABA2A080091
:1035F200F501F31FFD2AFE2A052BF209F309F20A4F
:103602000319F30AF501F50AF11F082B092B0E2BFA
:10361200F009F109F00A0319F10A7008710403199B
:10362200132B142B432BF401F40A222B0130031029
:10363200F00DF10DFF3E031D182B0130FF007F0836
:10364200F407F11F252B262B172B71087302031D7C
:103652002C2B70087202031C2F2B302B362B700878
:10366200F2027108031CF303F30201300310F10CA0
:10367200F00CFF3E031D372B0130F402031D422BD9
:10368200432B262B75080319472B482B4D2BF20988
:10369200F309F20A0319F30A7308F1007208F00041
:1036A2000800FB01F71F562B572B5E2BF609F70973
:1036B200F60A0319F70AFB01FB0AF91F612B622BB9
:1036C2006B2BF809F909F80A0319F90A0130FF000E
:1036D2007F08FB06FC01FD01760877040319722BB3
:1036E200732BAA2BFA01FA0A812B01300310F60D73
:1036F200F70DFF3E031D772B0130FF007F08FA070D
:10370200F71F842B852B762B01300310FC0DFD0D4A
:10371200FF3E031D862B77087902031D922B760844
:103722007802031C952B962B9D2B7608F8027708BE
:10373200031CF903F9027C1401300310F70CF60C98
:10374200FF3E031D9E2B0130FA02031DA92BAA2B5B
:10375200852B7B080319AE2BAF2BB42BFC09FD097B
:10376200FC0A0319FD0A7D08F7007C08F600080030
:103772000310831203134A0D4B0DD1005108031D90
:10378200C32BC42BCD2B0030CB000030CA0000303D
:10379200C9000030C800302C4808CC004908CD00D0
:1037A2004A08CE004B08CF001F300310CF0CCE0CBE
:1037B200CD0CCC0CFF3E031DD62B4C08D000CA17F3
:1037C200FF30C805FF30C905FF30CA050030CB0500
:1037D2009630D102D11FEE2BEF2B092C5108803AE3
:1037E200973E0318F52BF62BF72BC42B0130031051
:1037F200CB0CCA0CC90CC80CFF3E031DF82B0130C0
:10380200FF007F08D107031D072C082CF72B202C63
:1038120020305102031C0E2C0F2C1B2CC42B013008
:10382200CC000310C80DC90DCA0DCB0DCC0B122C48
:103832000130D1025108031D1F2C202C102C5008DE
:103842000319242C252C302CC809C909CA09CB0913
:10385200C80A0319C90A0319CA0A0319CB0A0800BC
:1038620083120313A500E830F6000330F7002408A2
:10387200F9002308F8000A168A1552230A168A1537
:103882008312031322088400760883138000840ABB
:1038920077088000220884000008F000840A0008EB
:1038A200F100E830F2000330F3000A168A15A8216D
:1038B2000A168A15700883120313A3027108031CE7
:1038C200A403A4026430F6000030F7002408F900D3
:1038D2002308F8000A168A1552230A168A1583123B
:1038E200031321088400760883178000840A77086E
:1038F2008000210884000008F000840A0008F1001A
:103902006430F2000030F3000A168A15A8210A1664
:103912008A15700883120313A3027108031CA403FF
:10392200A4020A30F6000030F7002408F900230848
:10393200F8000A168A1552230A168A1583120313EF
:1039420020088400760883178000840A77088000A4
:103952000A30F0000030F1002408F3002308F200DE
:103962000A168A15F9220A168A15831203132508E4
:103972008400700883178000840A710880000800A0
:1039820083160317590883120313B500831603170E
:10399200580883120313B4008316031757088312BF
:1039A2000313B30083160317560883120313B200DE
:1039B2004030B1008030B0000030AF000030AE00C7
:1039C2000A128A1558210A168A158312031331081E
:1039D200D7003008D6002F08D5002E08D40057088B
:1039E200B5005608B4005508B3005408B200831657
:1039F20003131208013E83120313A00000300318C0
:103A02000130A100A201A11BA2032208A3000130E0
:103A12000A168A1546270A168A15831203132308E3
:103A2200B1002208B0002108AF002008AE000A123F
:103A32008A1558210A168A15831203133108CB00FE
:103A42003008CA002F08C9002E08C8000A168A15B5
:103A5200B9230A168A15831203134908831603171A
:103A6200E10083120313480883160317E00061087C
:103A720083120313D3008316031760088312031300
:103A8200D200530DD30CD20C530DD30CD20C5208CE
:103A92009500831603176008033983120313D200BB
:103AA20003300310D20DFF3E031D522D0310520DA1
:103AB2000C38970008008316031759088312031362
:103AC200B50083160317580883120313B400831634
:103AD2000317570883120313B300831603175608FC
:103AE20083120313B2004030B1008030B0000030C6
:103AF200AF000030AE000A128A1558210A168A1544
:103B0200831203133108D7003008D6002F08D500DE
:103B12002E08D4005708B5005608B4005508B30063
:103B22005408B200831603131208013E83120313D2
:103B3200A000003003180130A100A201A11BA203C2
:103B42002208A30001300A168A1546270A168A158A
:103B5200831203132308B1002208B0002108AF002A
:103B62002008AE000A128A1558210A168A158312F5
:103B720003133108CB003008CA002F08C9002E08F1
:103B8200C8000A168A15B9230A168A158312031366
:103B9200490883160317E1008312031348088316AA
:103BA2000317E000610883120313D300831603177F
:103BB200600883120313D200530DD30CD20C530DA1
:103BC200D30CD20C52089B008316031760080339EA
:103BD20083120313D20003300310D20DFF3E031DE4
:103BE200ED2D0310520D0C389D00080000307005B9
:103BF200F80000307105F90080307205FA007F305C
:103C02007305FB007B087A0479047804031D0A2EED
:103C12000B2E132E0030F3000030F2000030F100C2
:103C22000030F00000307405F80000307505F9002E
:103C320080307605FA007F307705FB007B087A0436
:103C420079047804031D262E272E2F2E0030F7002C
:103C52000030F6000030F5000030F400F31F322E81
:103C6200332E572E0030F8000030F9000030FA00F1
:103C72008030FB007008F8027108031C710F422E9D
:103C8200432EF9027208031C720F482E492EFA02C3
:103C92007308031C730F4E2E4F2EFB027B08F3009A
:103CA2007A08F2007908F1007808F000F71F5A2E1E
:103CB2005B2E7F2E0030F8000030F9000030FA0051
:103CC2008030FB007408F8027508031C750F6A2E19
:103CD2006B2EF9027608031C760F702E712EFA02F3
:103CE2007708031C770F762E772EFB027B08F700EE
:103CF2007A08F6007908F5007808F4008030F306B7
:103D02008030F70677087302031D912E760872023F
:103D1200031D912E75087102031D912E7408700205
:103D22000318942E952E972E0310982E0314080034
:103D320083120313DA000830D8000030D9000A30A9
:103D420054065504031DA62EA72E172F0A30D8009D
:103D52000030D9000A30F0000030F1000A30F200E1
:103D62000030F3000A168A15A8210A168A1571086E
:103D7200F7007008F600831203135708F90056087B
:103D8200F8000A168A1552230A168A15831203139B
:103D920053088400760883178000840A770880001D
:103DA200530884000008F000840A0008F10064301F
:103DB200F2000030F3000A168A15A8210A168A15A5
:103DC200700883120313D6027108031CD703D702AB
:103DD2000A30F6000030F7005708F9005608F800DC
:103DE2000A168A1552230A168A15831203135208D9
:103DF2008400760883178000840A770880000A30DE
:103E0200F0000030F1005708F3005608F2000A16DD
:103E12008A15F9220A168A15831203135A08840096
:103E2200700883178000840A710880005908F7001F
:103E32005808F6005708F9005608F8000A168A15BD
:103E420052230A168A158312031352088400760835
:103E520083178000840A770880005908F100580807
:103E6200F0005708F3005608F2000A168A15F922E4
:103E72000A168A15831203135A08840070088317DE
:103E82008000840A71088000080083120313A800CE
:103E9200280803194D2F4E2F622FA31F512F522F87
:103EA200622F2009AA002109AB002209AC002309D4
:103EB200AD00AA0A0319AB0A0319AC0A0319AD0A29
:103EC2006A2F2308AD002208AC002108AB002008AD
:103ED200AA002308220421042004031D712F722F3B
:103EE2007B2F0030A3000030A2000030A100003080
:103EF200A000FF2F9630A9008B2F0130FF007F0812
:103F0200A90701300310AD0CAC0CAB0CAA0CFF3EA0
:103F1200031D832FFE302D05031D902F912F7E2F21
:103F2200AD2F0130FF007F08A9070130AA0700303A
:103F320003180130AB07003003180130AC07003022
:103F420003180130AD0701300310AD0CAC0CAB0C03
:103F5200AA0CFF3E031DA52FFF302D05031DB22F16
:103F6200B32F922FBF2F0130A9020130A4000310FA
:103F7200AA0DAB0DAC0DAD0DA40BB82FAC1BC22F0F
:103F8200C32FC92F023029020318C82FC92FB42FFB
:103F92002918CC2FCD2FD52FFF30AA05FF30AB0526
:103FA2007F30AC05FF30AD050310A90C2908A40031
:103FB200A501A601A70118300310A40DA50DA60D99
:103FC200A70DFF3E031DDD2F2408AA042508AB041C
:103FD2002608AC042708AD0428080319F12FF22F94
:103FE200F72FA31FF52FF62FF72FAD172D08A300DC
:0E3FF2002C08A2002B08A1002A08A00008003D
:04400E00E42FFF3F5D
:00000001FF
