:100000000A128A11EE2F00308A000408840A82073F
:100010000034533465346C34653463346334693488
:100020006F346E346134723420347034723461341D
:10003000633400344D34313420342034203441349E
:10004000703461346734613464346F342034203464
:10005000203400344D3431342034203420344534BD
:100060006E34633465346E346434693464346F34AC
:1000700000344D34323420342034203445346E344E
:10008000633465346E346434693464346F340034FA
:10009000533475346D346134203465346E34203417
:1000A0006F346334743461346C3400344D3431341F
:1000B0002034203420344134703461346734613466
:1000C00064346F3400344D343234203420342034DE
:1000D0004134703461346734613464346F340034D3
:1000E0005034723461346334743469346334613449
:1000F000003431343234203420342034003431346C
:100100003334203420342034003431343434203437
:100110002034203400343134353420342034203439
:100120000034313436342034203420340034313437
:1001300031342034453431340034313431342034D6
:100140004534323400342534523450344D34003484
:1001500056346F346C34743400342B3400343034FF
:10016000003433340034343400343534003436341D
:1001700000343734003438340034393400343D34FA
:02018000003449
:10019C0083120313A80028080319D528D628EA28A7
:1001AC00A31FD928DA28EA282009AA002109AB00C4
:1001BC002209AC002309AD00AA0A0319AB0A0319E2
:1001CC00AC0A0319AD0AF2282308AD002208AC00D2
:1001DC002108AB002008AA002308220421042004D3
:1001EC00031DF928FA2803290030A3000030A200CF
:1001FC000030A1000030A00087299630A9001329F7
:10020C000130FF007F08A90701300310AD0CAC0CC6
:10021C00AB0CAA0CFF3E031D0B29FE302D05031D54
:10022C0018291929062935290130FF007F08A9074B
:10023C000130AA07003003180130AB070030031857
:10024C000130AC07003003180130AD07013003104A
:10025C00AD0CAC0CAB0CAA0CFF3E031D2D29FF30D2
:10026C002D05031D3A293B291A2947290130A902DA
:10027C000130A4000310AA0DAB0DAC0DAD0DA40BF9
:10028C004029AC1B4A294B29512902302902031859
:10029C00502951293C292918542955295D29FF3009
:1002AC00AA05FF30AB057F30AC05FF30AD05031060
:1002BC00A90C2908A400A501A601A7011830031058
:1002CC00A40DA50DA60DA70DFF3E031D6529240841
:1002DC00AA042508AB042608AC042708AD0428089A
:1002EC00031979297A297F29A31F7D297E297F2942
:1002FC00AD172D08A3002C08A2002B08A1002A087A
:10030C00A0000800A0308400E33083120313CF0058
:10031C000408D0000730D1004F0884008313000874
:10032C00D200CF0A5008840052088000D00AD10BAA
:10033C009229B1308400D930CF000408D0000A30A3
:10034C00D1004F08840083130008D200CF0A500854
:10035C00840052088000D00AD10BA72983160313FE
:10036C00C701C801AF01B001D301D401CD01CE0149
:10037C00C501C601C301C401C101C201D501D60129
:10038C00D701D801CF01D001CB01CC010030AA009C
:10039C000030A9000030A8000030A7000030BE00DB
:1003AC000030BD000030BC000030BB000030AE009F
:1003BC000030AD000030AC000030AB0083160317EA
:1003CC0088018901FF30831603138500870183128E
:1003DC000313870185010A128A15D5200A128A1186
:1003EC00982AF6010130F70000300A128A154420D1
:1003FC000A128A11F6016830F70001300A128A15C8
:10040C0044200A128A110310831203138518031453
:10041C00003003180130CF00D0014F0883160313AE
:10042C00BF0083120313500883160313C0003F034D
:10043C004004031D222A232A402A2F083004031DBE
:10044C00282A292A402A0130C7070318C80A003075
:10045C00C8074808803AFF0080307F02031D382A05
:10046C0007304702031C3B2A3C2A402A83160313FD
:10047C00C701C8010930F600831603134708A03ED4
:10048C00840083130008F70001300A128A154420F7
:10049C000A128A11831603134008B0003F08AF00FC
:1004AC0003108312031305190314003003180130D1
:1004BC00CF00D0014F0883160313D100831203130E
:1004CC00500883160313D20051035204031D6F2AE4
:1004DC00702A912A4D084E04031D752A762A912AFA
:1004EC005308540403197B2A7D2A01307E2A0030DC
:1004FC0083120313CF00D0014F0883160313D300CC
:10050C0083120313500883160313D4000A128A159E
:10051C0007200A128A11831603135208CE005108C1
:10052C00CD00982A831603135308540403199F2AE9
:10053C00A02AF729D82F8701F6014E30F70000309A
:10054C000A128A1544200A128A11F6015B30F70050
:10055C0001300A128A1544200A128A1103108312E0
:10056C00031305190314003003180130CF00D00118
:10057C004F0883160313D1008312031350088316FC
:10058C000313D20051035204031DCD2ACE2AEB2AA9
:10059C004D084E04031DD32AD42AEB2A53085404C5
:1005AC000319D92ADB2A0130DC2A00308312031309
:1005BC00CF00D0014F0883160313D300831203130B
:1005CC00500883160313D400F52A5208CE005108A4
:1005DC00CD0083120313851DF42AF52AA12A831654
:1005EC00031353085404031DFC2AFD2A092B0A1279
:1005FC008A1507200A128A11013083160313CD00C5
:10060C000030CE00982A831203130716F60122300D
:10061C00F70000300A128A1544200A128A11831638
:10062C000313C901CA0183120313051E1E2B1F2BB2
:10063C00262B013083160313C5000030C600462B51
:10064C001A3083120313D000F730CF00CF0B2C2BB2
:10065C00D00B2C2B312B013083160313C907031835
:10066C00CA0A0030CA074A08803AFF0080307F026D
:10067C00031D422B55304902031C452B462B192BCD
:10068C008316031345034604031D4D2B4E2B562B8B
:10069C00C501C6010A128A1507200A128A11982A66
:1006AC00831203138716F6013130F70001300A125A
:1006BC008A1544200A128A1183160313C901CA0130
:1006CC0083120313051E6B2B6C2B732B01308316BB
:1006DC000313C5000030C600932B0630831203139E
:1006EC00D0002F30CF00CF0B792BD00B792B7E2B5A
:1006FC00013083160313C9070318CA0A0030CA074E
:10070C004A08803AFF0080307F02031D8F2B643033
:10071C004902031C922B932B662B83160313450360
:10072C004604031D9A2B9B2B9C2B4E2B20308312A3
:10073C0003138700F6011230F70000300A128A15F5
:10074C0044200A128A1183120313051EAE2BAF2B01
:10075C00A92B502BF6014030F70000300A128A15F5
:10076C0044200A128A113E2C08080F39CF00D00100
:10077C004F0883160313C300831203135008831608
:10078C000313C400D73083120313A000CF30A10091
:10079C000830A2000030A300831603134408831210
:1007AC000313A50083160313430883120313A40039
:1007BC00D5300A128A153F220A128A11F6018316C5
:1007CC0003135708B13E840083130008F70001306F
:1007DC000A128A1544200A128A11F601F60A8316A7
:1007EC0003135508B13E840083130008F700013051
:1007FC000A128A1544200A128A1103108312031359
:10080C0005190314003003180130CF00D0014F0834
:10081C0083160313D100831203135008831603139A
:10082C00D20051035204031D1C2C1D2C3A2C4D08D4
:10083C004E04031D222C232C3A2C53085404031968
:10084C00282C2A2C01302B2C003083120313CF00C0
:10085C00D0014F0883160313D300831203135008DF
:10086C0083160313D400442C5208CE005108CD003B
:10087C0083120313851D432C442CBA2B83160313AC
:10088C0053085404031D4B2C4C2C4D2CFD2A0230C8
:10089C00F600A530F70001300A128A1544200A121E
:1008AC008A11DD2C08080F39CF00D0014F088316B0
:1008BC000313C10083120313500883160313C200E1
:1008CC00D73083120313A000CF30A1000830A20050
:1008DC000030A30083160313420883120313A500F0
:1008EC0083160313410883120313A400D5300A1294
:1008FC008A153F220A128A110330F600831603135D
:10090C005708B13E840083130008F70001300A1227
:10091C008A1544200A128A110430F6008316031338
:10092C005508B13E840083130008F70001300A1209
:10093C008A1544200A128A11031083120313051915
:10094C000314003003180130CF00D0014F08831678
:10095C000313D10083120313500883160313D20020
:10096C0051035204031DBB2CBC2CD92C4D084E0436
:10097C00031DC12CC22CD92C530854040319C72CA9
:10098C00C92C0130CA2C003083120313CF00D001C4
:10099C004F0883160313D3008312031350088316D6
:1009AC000313D400E52C5208CE005108CD001830AA
:1009BC00831203130506031DE42CE52C582C831617
:1009CC00031353085404031DEC2CED2CEE2CFD2AC0
:1009DC000530F600B730F70001300A128A154420B2
:1009EC000A128A11831603134108C3070318C40A99
:1009FC004208C407D73083120313A000CF30A100E4
:100A0C000830A2000030A30083160313440883129D
:100A1C000313A50083160313430883120313A400C6
:100A2C00D5300A128A153F220A128A110630F600B6
:100A3C00831603135708B13E840083130008F70094
:100A4C0001300A128A1544200A128A110730F60066
:100A5C00831603135508B13E840083130008F70076
:100A6C0001300A128A1544200A128A1183120313C8
:100A7C00851C412D422D3C2D502B7C309200831235
:100A8C0003139B01023092000C309D009101121552
:100A9C000A128A1507200A128A11C02F8312031317
:100AAC00851E592D5A2D752D013083160313CB0736
:100ABC000318CC0A0030CC074C08803AFF00803079
:100ACC007F02031D6B2D7E304B02031C6E2D6F2D90
:100ADC00752D7D3083160313CB000030CC008312B0
:100AEC000313051F7A2D7B2D942DFF3083160313D2
:100AFC00CB070318CC0AFF30CC074C08803AFF0018
:100B0C0080307F02031D8C2D01304B0203188F2D7A
:100B1C00902D942D83160313CB01CC018316031354
:100B2C004B08831203139B000630F6009C30F70031
:100B3C0000300A128A1544200A128A11CF30F200B2
:100B4C000030F300831603134C08F1004B08F0003F
:100B5C000A168A11B6270A128A117108F900700850
:100B6C00F8007D30F6000030F7000A128A15622179
:100B7C000A128A11760883120313A0007708A100C9
:100B8C000030A11BFF30A200A30001300A128A1111
:100B9C00CE200A128A11831203132308831603131F
:100BAC00BE0083120313220883160313BD008312A5
:100BBC000313210883160313BC00831203132008AC
:100BCC0083160313BB00D73083120313A000CF305E
:100BDC00A1000A30A2000030A300831603133E08C4
:100BEC00F3003D08F2003C08F1003B08F0000A124B
:100BFC008A15C9210A128A11710883120313A500E0
:100C0C007008A400D5300A128A153F220A128A11E4
:100C1C000630F600831603134F08B13E840083138D
:100C2C000008F70001300A128A1544200A128A11B2
:100C3C000730F600831603135708B13E8400831364
:100C4C000008F70001300A128A1544200A128A1192
:100C5C000830F600831603135508B13E8400831345
:100C6C000008F70001300A128A1544200A128A1172
:100C7C00F6019B30F70000300A128A1544200A1244
:100C8C008A11433083120313B8004F30B700003081
:100C9C00B6000030B5004230A300C830A2000030CE
:100CAC00A1000030A000831603133E088312031327
:100CBC00A700831603133D0883120313A6008316A3
:100CCC0003133C0883120313A500831603133B087C
:100CDC0083120313A4000A128A15BB240A128A1168
:100CEC00831203132308BC002208BB002108BA009E
:100CFC002008B9000A128A15EC220A128A118312F2
:100D0C000313380883160313AA008312031337083E
:100D1C0083160313A90083120313360883160313D7
:100D2C00A80083120313350883160313A700D730CA
:100D3C0083120313A000CF30A1000A30A2000030B0
:100D4C00A300831603132A08F3002908F2002808CD
:100D5C00F1002708F0000A128A15C9210A128A111B
:100D6C00710883120313A5007008A400D5300A1271
:100D7C008A153F220A128A11F601F60A831603130A
:100D8C004F08B13E840083130008F70001300A12AB
:100D9C008A1544200A128A110230F60083160313B6
:100DAC005708B13E840083130008F70001300A1283
:100DBC008A1544200A128A110330F6008316031395
:100DCC005508B13E840083130008F70001300A1265
:100DDC008A1544200A128A110B30F600A030F70055
:100DEC0000300A128A1544200A128A110630F200C9
:100DFC000030F300831603134C08F1004B08F0008D
:100E0C000A168A11B6270A128A117108F90070089D
:100E1C00F8007D30F6000030F7000A128A156221C6
:100E2C000A128A11760883120313A0007708A10016
:100E3C000030A11BFF30A200A30001300A128A115E
:100E4C00CE200A128A11831203132308831603136C
:100E5C00AE0083120313220883160313AD00831212
:100E6C000313210883160313AC0083120313200809
:100E7C0083160313AB00D73083120313A000CF30BB
:100E8C00A1000A30A2000030A300831603132E0821
:100E9C00F3002D08F2002C08F1002B08F0000A12C8
:100EAC008A15C9210A128A11710883120313A5002D
:100EBC007008A400D5300A128A153F220A128A1132
:100ECC000C30F600831603135708B13E84008313CD
:100EDC000008F70001300A128A1544200A128A1100
:100EEC000D30F600831603135508B13E84008313AE
:100EFC000008F70001300A128A1544200A128A11E0
:100F0C000310831203130519031400300318013066
:100F1C00CF00D0014F0883160313D10083120313A3
:100F2C00500883160313D20051035204031D9F2F44
:100F3C00A02FBC2F4D084E04031DA52FA62FBC2F90
:100F4C00530854040319AB2FAD2F0130AE2F0030D2
:100F5C0083120313CF00D0014F0883160313D30061
:100F6C0083120313500883160313D4005208CE00C7
:100F7C005108CD008316031353085404031DC72FC7
:100F8C00C82F542D53085404031DCD2FCE2F982A4F
:100F9C000A128A1507200A128A11831203139B0165
:100FAC001211982A4808003A0319DD2F982A47088D
:100FBC00003A0319EF2A013A0319B02B033A03192B
:100FCC00432D013A0319982A982A0A128A110028EB
:100FDC008313EA30FD001730FE009230FF00D93049
:100FEC0084000A168A11A7270A128A1183010A1291
:040FFC008A118829A5
:10100E0001300A128A1573200A128A150630F4006E
:10101E003030F300F30B1128F40B11280000803050
:10102E000A128A1573200A128A150800F800F401B4
:10103E00F5017008F200F3017208F6007308F7006C
:10104E00781C2A282B2831287608F4070318F50A6D
:10105E007708F50701300310F60DF70DFF3E031D5F
:10106E0032280310F80C7808031D3E283F28272845
:10107E007508F1007408F0000800F8007808031DE8
:10108E0049284A2859281030760203184F2850282C
:10109E00592876080F3980380A128A1573200A12D9
:1010AE008A156C287803031D5D285E286C28103085
:1010BE0076020318632864286C2876080F39C03826
:1010CE000A128A1573200A128A1577080A168A11CF
:1010DE00DB270A128A150800F2007208F03902386E
:1010EE008312031386007B28FD30FF007F088312D6
:1010FE00031386050D30F000F00B83287208F00004
:10110E0003300310F00DFF3E031D88280310700DF1
:10111E0002388312031386009428FD30FF007F08E7
:10112E008312031386050330F1009730F000F00BA5
:10113E009E28F10B9E28A3280800F2007208F039B1
:10114E000338831203138600AC28FD30FF007F089E
:10115E008312031386050D30F000F00BB4287208CD
:10116E00F00003300310F00DFF3E031DB9280310ED
:10117E00700D0338831203138600C528FD30FF005F
:10118E007F088312031386050330F1009730F000B9
:10119E00F00BCF28F10BCF28D428080083160313A9
:1011AE0086013430F400F130F300F30BDC28F40B3D
:1011BE00DC28E12802300A128A1573200A128A15D9
:1011CE0028300A128A1573200A128A150C300A1258
:1011DE008A1573200A128A1506300A128A15732090
:1011EE000A128A1501300A128A1573200A128A15FC
:1011FE000630F4003030F300F30B0329F40B03290F
:10120E0000000800F501F31F0D290E291529F2091A
:10121E00F309F20A0319F30AF501F50AF11F182969
:10122E0019291E29F009F109F00A0319F10A7008AB
:10123E0071040319232924295329F401F40A3229AC
:10124E0001300310F00DF10DFF3E031D2829013072
:10125E00FF007F08F407F11F352936292729710869
:10126E007302031D3C2970087202031C3F2940299A
:10127E0046297008F2027108031CF303F3020130D1
:10128E000310F10CF00CFF3E031D47290130F40250
:10129E00031D522953293629750803195729582930
:1012AE005D29F209F309F20A0319F30A7308F10032
:1012BE007208F0000800FB01F71F662967296E29E6
:1012CE00F609F709F60A0319F70AFB01FB0AF91FDB
:1012DE00712972297B29F809F909F80A0319F90A03
:1012EE000130FF007F08FB06FC01FD017608770444
:1012FE00031982298329BA29FA01FA0A91290130A0
:10130E000310F60DF70DFF3E031D87290130FF0078
:10131E007F08FA07F71F94299529862901300310B3
:10132E00FC0DFD0DFF3E031D962977087902031D66
:10133E00A22976087802031CA529A629AD297608CC
:10134E00F8027708031CF903F9027C14013003102C
:10135E00F70CF60CFF3E031DAE290130FA02031DF9
:10136E00B929BA2995297B080319BE29BF29C42991
:10137E00FC09FD09FC0A0319FD0A7D08F7007C082B
:10138E00F60008000310720D730DF9007908031DA5
:10139E00D129D229DB290030F3000030F2000030D1
:1013AE00F1000030F0003E2A7008F4007108F500DC
:1013BE007208F6007308F7001F300310F70CF60CD6
:1013CE00F50CF40CFF3E031DE4297408F800F21727
:1013DE00FF30F005FF30F105FF30F2050030F30568
:1013EE009630F902F91FFC29FD29172A7908803A4F
:1013FE00973E0318032A042A052AD2290130031026
:10140E00F30CF20CF10CF00CFF3E031D062A01301A
:10141E00FF007F08F907031D152A162A052A2E2A12
:10142E0020307902031C1C2A1D2A292AD2290130B8
:10143E00F4000310F00DF10DF20DF30DF40B202A54
:10144E000130F9027908031D2D2A2E2A1E2A78084A
:10145E000319322A332A3E2AF009F109F209F30957
:10146E00F00A0319F10A0319F20A0319F30A080024
:10147E0083120313A6000830A7000030A8000A301C
:10148E0022062304031D4C2A4D2ABD2A0A30A7002A
:10149E000030A8000A30F0000030F1000A30F200EF
:1014AE000030F3000A168A11B6270A128A1571083F
:1014BE00F7007008F600831203132508F9002408BC
:1014CE00F8000A128A1562210A128A158312031372
:1014DE0021088400760883138000840A7708800030
:1014EE00210884000008F000840A0008F10064302E
:1014FE00F2000030F3000A168A11B6270A128A1576
:10150E00700883120313A4027108031CA503A5021D
:10151E000A30F6000030F7002508F9002408F8001C
:10152E000A128A1562210A128A15831203132008E1
:10153E008400760883138000840A770880000A30BE
:10154E00F0000030F1002508F3002408F2000A1222
:10155E008A1509210A128A1583120313260884009C
:10156E00700883138000840A710880002808F70031
:10157E002708F6002508F9002408F8000A128A1533
:10158E0062210A128A15831203132008840076083A
:10159E0083138000840A770880002808F10027084A
:1015AE00F0002508F3002408F2000A128A1509211A
:1015BE000A128A15831203132608840070088313F7
:1015CE008000840A710880000800831203133C080F
:1015DE008039C6003C08BD003D07CD00BB1FF82A70
:1015EE00F92AFA2A4D144D080319FE2AFF2A0F2B49
:1015FE004D0A031D032B042B0C2B0030BC000030B6
:10160E00BB000030BA000030B900BB17BC01172B6D
:10161E000030BC000030BB000030BA000030B90012
:10162E0038088039FF007F08C6063808BD003D0720
:10163E00CE00B71F232B242B252B4E144E08031937
:10164E00292B2A2B3A2B4E0A031D2E2B2F2B372BF1
:10165E000030B8000030B7000030B6000030B500E2
:10166E00B717B801422B0030B8000030B700003079
:10167E00B6000030B5003808370436043504031DB3
:10168E00492B4A2B632B0030BC000030BB000030CE
:10169E00BA000030B9008030BB047F30BC0446086D
:1016AE00FF007F08BC043C08B8003B08B7003A08AE
:1016BE00B6003908B500BA2C4D08031D672B682BF0
:1016CE00712B0030B8000030B7000030B60000308B
:1016DE00B500BA2C4D08BD00BE013E08C0004E0834
:1016EE003D02BF00031CC0033F087F3EC7004008F9
:1016FE000318013E003EC8003C08C5003B08C4006C
:10170E003A08C3003908C2000030BC000030BB00EC
:10171E000030BA000030B9000030CC000030CB00F1
:10172E000030CA000030C900CE01E72B4E08031965
:10173E00A12BA22BC22B0130BD000310C20DC30D75
:10174E00C40DC50DBD0BA42B0130BD000310B90D8A
:10175E00BA0DBB0DBC0DBD0BAD2BCC1FB72BB82BD3
:10176E00B92B39140130BD000310C90DCA0DCB0DB4
:10177E00CC0DBD0BBB2B38084502031DD02B3708F3
:10178E004402031DD02B36084302031DD02B35080F
:10179E004202031CD32BD42BE32B4C173508C20269
:1017AE003608031C360FC3023708031C370FC4025A
:1017BE003808031C380FC5020130FF007F08CE0722
:1017CE001A304E02031CEC2BED2B9D2B45084404C6
:1017DE00430442040319F42BF52B142C4914142C36
:1017EE000130BD000310B90DBA0DBB0DBC0DBD0B04
:1017FE00F92BCC1F032C042C052C39140130BD0001
:10180E000310C90DCA0DCB0DCC0DBD0B072CFF302F
:10181E00C7070318C80AFF30C807BB1F172C182CA0
:10182E00F72BCE01CC1F1C2C1D2C392CFF3049055B
:10183E00BD00FF304A05BE00FF304B05BF007F30B4
:10184E004C05C00040083F043E043D040319302CF3
:10185E00312C342CCE01CE0A392C391C372C382C95
:10186E00392C312C4E0803193D2C3E2C6F2C013097
:10187E00B907003003180130BA07003003180130E1
:10188E00BB07003003180130BC073C1C4F2C502CFA
:10189E006F2C3908BD003A08BE003B08BF003C085B
:1018AE00C0000130C100400DC00CBF0CBE0CBD0C01
:1018BE00C10B5A2C4008BC003F08BB003E08BA00C2
:1018CE003D08B9000130C7070318C80A0030C80721
:1018DE004808803AFF0080307F02031D782CFF30CD
:1018EE004702031C7B2C7C2C8A2CFF3083120313A3
:1018FE00C7000030C8000030BC000030BB00003014
:10190E00BA000030B900831203134808803AFF0072
:10191E0080307F02031D952C013047020318982C4E
:10192E00992CA62C83120313C701C8010030BC00EA
:10193E000030BB000030BA000030B900C60183127F
:10194E0003134708CD004D1CAD2CAE2CB02CBB178D
:10195E00B42C7F30FF007F08BB054D08BD0003107F
:10196E003D0CBC00562B080083120313230880394C
:10197E00A8002308F9007907AE00A21FC72CC82CB7
:10198E00C92C2E142E080319CD2CCE2CDD2C2E0A8C
:10199E00031DD22CD32CDB2C0030A3000030A20070
:1019AE000030A1000030A000A217E52C0030A300EB
:1019BE000030A2000030A1000030A00027088039BE
:1019CE00FF007F08A8062708F9007907AD00A61FBB
:1019DE00F12CF22CF32C2D142D080319F72CF82CC6
:1019EE00072D2D0A031DFC2CFD2C052D0030A70004
:1019FE000030A6000030A5000030A400A6170F2D61
:101A0E000030A7000030A6000030A5000030A40072
:101A1E002D080319132D142D192D2E08031D182D05
:101A2E00192D222D0030A3000030A2000030A1009D
:101A3E000030A000FF2F2008F00026080A128A1599
:101A4E001D200A128A15710883120313B400700840
:101A5E00B3003308F900FA01FB01FC017C08AC006D
:101A6E007B08AB007A08AA007908A9003408F900AF
:101A7E00FA01FB01FC017C08B2007B08B1007A0878
:101A8E00B0007908AF002108F00025080A128A1567
:101A9E001D200A128A15710883120313B4007008F0
:101AAE00B3003308F900FA01FB01FC017908A9071C
:101ABE007A0803110318013E0319662DAA077B0845
:101ACE0003110318013E03196D2DAB077C0803119A
:101ADE000318013E0319742DAC073408F900FA01FE
:101AEE00FB01FC017908AF077A0803110318013EC8
:101AFE000319822DB0077B0803110318013E031949
:101B0E00892DB1077C0803110318013E0319902D8E
:101B1E00B2072208F00024080A128A151D200A12A4
:101B2E008A15710883120313B4007008B3003308CA
:101B3E00F900FA01FB01FC017908A9077A080311E3
:101B4E000318013E0319AC2DAA077B0803110318D5
:101B5E00013E0319B32DAB077C0803110318013E98
:101B6E000319BA2DAC073408F900FA01FB01FC0188
:101B7E007908AF077A0803110318013E0319C82D1F
:101B8E00B0077B0803110318013E0319CF2DB107CF
:101B9E007C0803110318013E0319D62DB207083035
:101BAE00F9000310A90DAA0DAB0DAC0DF90BD82D34
:101BBE002108F00024080A128A151D200A128A151F
:101BCE00710883120313B4007008B3003308F900D0
:101BDE003408FA00FB01FC017908A9077A08031101
:101BEE000318013E0319FC2DAA077B0803110318E5
:101BFE00013E0319032EAB077C0803110318013EA7
:101C0E0003190A2EAC072008F00025080A128A15BF
:101C1E001D200A128A15710883120313B40070086E
:101C2E00B3003308F9003408FA00FB01FC0179080F
:101C3E00A9077A0803110318013E0319272EAA07D4
:101C4E007B0803110318013E03192E2EAB077C08E7
:101C5E0003110318013E0319352EAC070830F900A5
:101C6E000310A90DAA0DAB0DAC0DF90B372E2008E4
:101C7E00F00024080A128A151D200A128A1571080E
:101C8E0083120313B4007008B3003308F90034084C
:101C9E00FA00FB01FC017908A9077A080311031861
:101CAE00013E03195B2EAA077B0803110318013EA0
:101CBE000319622EAB077C0803110318013E0319AA
:101CCE00692EAC072108F00026080A128A151D207D
:101CDE000A128A15710883120313B4007008B30038
:101CEE003308F9003408FA00FB01FC017908AF074C
:101CFE007A0803110318013E0319862EB0077B08DC
:101D0E0003110318013E03198D2EB1077C08031130
:101D1E000318013E0319942EB2072208F00025087D
:101D2E000A128A151D200A128A15710883120313CE
:101D3E00B4007008B3003308F9003408FA00FB0150
:101D4E00FC017908AF077A0803110318013E031945
:101D5E00B12EB0077B0803110318013E0319B82EEC
:101D6E00B1077C0803110318013E0319BF2EB207F9
:101D7E002208F00026080A128A151D200A128A155A
:101D8E00710883120313B4007008B3003308F9000E
:101D9E003408FA00FB01FC0108300310F90DFA0DAE
:101DAE00FB0DFC0DFF3E031DD42E7908AF077A08FC
:101DBE0003110318013E0319E52EB0077B0803112A
:101DCE000318013E0319EC2EB1077C08031103180A
:101DDE00013E0319F32EB2072908F9002A08FA006A
:101DEE002B08FB002C08FC0018300310FC0CFB0C1D
:101DFE00FA0CF90CFF3E031DFC2E7908AF077A088A
:101E0E0003110318013E03190D2FB0077B080311B0
:101E1E000318013E0319142FB1077C080311031890
:101E2E00013E03191B2FB2070830F9000310A90D4C
:101E3E00AA0DAB0DAC0DF90B1D2F2E082D07F900B9
:101E4E00FA01FA0D7908823EB3007A080318013EB2
:101E5E00FF3EB4004F2F0130F9000310AF0DB00D4F
:101E6E00B10DB20DF90B342FAC1F3E2F3F2F402F6B
:101E7E002F140130F9000310A90DAA0DAB0DAC0DF6
:101E8E00F90B422FFF30B3070318B40AFF30B40723
:101E9E00B11F522F532F322FAD01AC1F572F582F7A
:101EAE00742FFF302905F900FF302A05FA00FF30A4
:101EBE002B05FB007F302C05FC007C087B047A048C
:101ECE00790403196B2F6C2F6F2FAD01AD0A742F90
:101EDE002F1C722F732F742F6C2F2D080319782F30
:101EEE00792FAA2F0130AF07003003180130B00749
:101EFE00003003180130B107003003180130B2076B
:101F0E00321C8A2F8B2FAA2F2F08F9003008FA00C7
:101F1E003108FB003208FC000130FD007C0DFC0C8A
:101F2E00FB0CFA0CF90CFD0B952F7C08B2007B080C
:101F3E00B1007A08B0007908AF000130B30703187A
:101F4E00B40A0030B4073408803AFF0080307F02B4
:101F5E00031DB32FFF303302031CB62FB72FC22F32
:101F6E007F3083120313B2008030B1000030B00016
:101F7E000030AF00F32F831203133408803AFF00B2
:101F8E0080307F02031DCD2F013033020318D02F76
:101F9E00D12FDD2F003083120313B2000030B100B9
:101FAE000030B0000030AF00A801F32F83120313EE
:101FBE003308AE00FF30AF05FF30B0057F30B105FE
:101FCE000030B2052E1CEC2FED2FEE2FB1172E0880
:101FDE00F9000310790CB2002808FF007F08B20444
:101FEE003208A3003108A2003008A1002F08A0007B
:021FFE000800D9
:102F2400A73493349934A934AB34AD34AF34B134C9
:102F3400B334B5348F349534713477347D34833479
:102F440089347E088A007F0882000A168A11A32722
:102F54000A168A118000840A04087D0603190034C5
:102F6400FF0A0319FE0AA72FF401F501701CBB2FF9
:102F7400BC2FC22F7208F4070318F50A7308F5076B
:102F840001300310F20DF30DFF3E031DC32F01307A
:102F94000310F10CF00CFF3E031DCA2F70087104DE
:102FA400031DD52FD62FB82F7508F1007408F00033
:102FB4000800F500F301F401F22F7308750784008B
:102FC4000A128A1103200A168A110A128A15A420E9
:102FD4000A168A110130F3070318F40A0030F407C3
:102FE4007308750784000A128A1103200A168A11CD
:0C2FF400003A031DFE2FFF2FDF2F080006
:04400E00E42FFF3F5D
:00000001FF
