:100000000A128A11E02FF501F31F072808280F288C
:10001000F209F309F20A0319F30AF501F50AF11FCF
:10002000122813281828F009F109F00A0319F10A17
:100030007008710403191D281E284D28F401F40AC4
:100040002C2801300310F00DF10DFF3E031D222876
:100050000130FF007F08F407F11F2F2830282128E6
:1000600071087302031D362870087202031C3928B8
:100070003A2840287008F2027108031CF303F302C7
:1000800001300310F10CF00CFF3E031D412801303C
:10009000F402031D4C284D283028750803195128F7
:1000A00052285728F209F309F20A0319F30A7308D0
:1000B000F1007208F000080083120313570880391A
:1000C000E4005708DC005C07E600D61F68286928B2
:1000D0006A286614660803196E286F287F28660A46
:1000E000031D732874287C280030D7000030D60008
:1000F0000030D5000030D400D617D7018728003053
:10010000D7000030D6000030D5000030D4005B08A6
:100110008039E5006508640603198F289028912826
:1001200064175B08DC005C07E500DA1F9828992853
:100130009A286514650803199E289F28AF28650A28
:10014000031DA328A428AC280030DB000030DA000F
:100150000030D9000030D800DA17DB01B7280030B2
:10016000DB000030DA000030D9000030D80066082B
:1001700065020318BC28BD28E328641FC028C128D5
:10018000C5288030FF007F08E4066608E7006508A0
:10019000E6006708E5005408E7005808D40067083F
:1001A000D8005508E7005908D5006708D900560857
:1001B000E7005A08D6006708DA005708E7005B082E
:1001C000D7006708DB00E7016508DC00DD015D089A
:1001D000DF0066085C02DE00031CDF035F08803A74
:1001E000FF0080307F02031DF7281A305E02031CD7
:1001F000FA28FB28322983120313570856045504A2
:100200005404031D04290629013007290030E700A2
:100210000030D7000030D6000030D5000030D400C8
:100220006508E6003A29671C162917291E29670860
:10023000DC0003105C0C0138E70020290310E70CF8
:10024000541C232924292529E7170130DC00570DE8
:10025000D70CD60CD50CD40CDC0B27290130FF00B1
:100260007F08E6078312031365086602031C392919
:100270003A291329641B3D293E2987296608031D55
:10028000422943294C290030D7000030D6000030E5
:10029000D5000030D400B32A5808D40759080311F8
:1002A0000318013E03195529D5075A0803110318ED
:1002B000013E03195C29D6075B0803110318013EB0
:1002C00003196329D707571C662967293B2A671C2E
:1002D0006A296B2972296708DC0003105C0C01385D
:1002E000E70074290310E70C541C77297829792931
:1002F000E7170130DC00570DD70CD60CD50CD40C09
:10030000DC0B7B290130FF007F08E6073B2A5708FA
:10031000803AFF005B08803A7F02031D99295A0842
:100320005602031D992959085502031D9929580899
:10033000540203189C299D29F529FF30DC00FF3069
:10034000DD00FF30DE00FF30DF005808E000590814
:10035000E1005A08E2005B08E3005408E002550897
:10036000031C550FB429B529E1025608031C560F8A
:10037000BA29BB29E2025708031C570FC029C1291B
:10038000E3026008DC0761080318610FC829C92966
:10039000DD0762080318620FCE29CF29DE07630844
:1003A0000318630ADF075F08D7005E08D6005D0800
:1003B000D5005C08D4008030FF007F08E406E70920
:1003C000E70A6708031DE529E629032A0130D40757
:1003D000003003180130D507003003180130D6076C
:1003E000003003180130D707032A5808D4025908EF
:1003F000031C590FD5025A08031C5A0FD6025B087A
:10040000031C5B0FD7025708560455045404031D00
:100410000A2A0B2A372A6708031D0F2A102A372AAF
:100420000030D7000030D6000030D5000030D400B6
:10043000B32A0130DC000310D40DD50DD60DD70D35
:10044000DC0B1B2AE71F252A262A272A5414671C9F
:100450002A2A2B2A2E2A0314E70D302A0310E70D2F
:1004600066080319342A352A372A0130E602D61FD6
:100470003A2A3B2A192AE501E71F3F2A402A4E2A39
:1004800067087F390319452A462A492AE501E50A02
:100490004E2A541C4C2A4D2A4E2A462A6508031916
:1004A000522A532A872A0130D4070030031801301A
:1004B000D507003003180130D6070030031801308B
:1004C000D707571C642A652A872A5408DC00550878
:1004D000DD005608DE005708DF000130E0005F0D48
:1004E000DF0CDE0CDD0CDC0CE00B6F2A5F08D700A4
:1004F0005E08D6005D08D5005C08D400660A0319C2
:10050000822A832A872A0130FF007F08E607660ACD
:1005100003198B2A8C2A912A6608031D902A912A96
:100520009F2A0030D7000030D6000030D5000030C0
:10053000D4006608031D9D2A9E2A9F2AE401661C9A
:10054000A22AA32AA52AD617A92A7F30FF007F084E
:10055000D6056608DC0003105C0CD700E41FB12A46
:10056000B22AB32AD7170800831603135008510480
:10057000031DBB2ABC2AD02A0930FA00B330FB0085
:100580009830FC0000300A168A15DB220A128A1104
:1005900083160317D001D1010130CE000030CF0007
:1005A000831603174D0883160313D1008316031710
:1005B0004C0883160313D000831603174E034F0411
:1005C000031DE32AE42A002B500883160313A0001E
:1005D00001300310A00DFF3E031DE92A0310200D7A
:1005E000B23E84008313000883160317DC00840ADC
:1005F0000008DD00840A0008DE00840A0008DF002D
:100600000A168A154A220A128A11831603176408E9
:100610006504031D0C2B0F2B0A168A11382D640854
:100620006504031D142B172B0A128A15F12F0A16C5
:100630008A15C4210A128A11083083120313950007
:100640000A128A15FC2F7230831603138F000430B0
:1006500083160317CA000030CB00FA015C30FB00A0
:100660009830FC0000300A168A15DB220A128A1123
:10067000AD2B013083160313A000831603174A0A1B
:1006800083160313452B0310A00DFF3E031D432BC0
:100690002008831203138800851E4F2B502B7A2BC2
:1006A000FA018E30FB009830FC0001300A168A15E2
:1006B000DB220A128A11013083160317CA070318B6
:1006C000CB0A0030CB0708304A064B04031D692BC8
:1006D0006A2B6E2B0430CA000030CB001A30831610
:1006E0000313A100F730A000A00B742BA10B742BF7
:1006F000792BA82B051F7D2B7E2B9D2BFA01983083
:10070000FB009830FC0001300A168A15DB220A1221
:100710008A11FF3083160317CA070318CB0AFF306C
:10072000CB0703304A064B04031D972B982B6E2BE7
:100730000730CA000030CB006E2BFA018430FB007A
:100740009830FC0001300A168A15DB220A128A1141
:100750000A168A154A220A128A1183160317640898
:100760006504031DB42BB52B392B64086504031DE8
:10077000BA2BBB2B142B0A168A11122D723083163A
:1007800003138F007C309200003083160317DF00C4
:100790000030DE000030DD000030DC000A168A1573
:1007A00031250A128A11023083120313920080301D
:1007B0009F008030831603139F00831203139E0152
:1007C000831603139E0183120313910112150A1657
:1007D0008A15C4210A128A11442E0A128A1502208F
:1007E0000A128A11710883160317C9007008C8001D
:1007F000443083120313BD007F30BC00C030BB0007
:100800000030BA00831603174808F0004908F100C9
:100810000030F11BFF30F200F30001300A168A1598
:100820006C260A128A11730883120313C10072081E
:10083000C0007108BF007008BE000A168A1173213B
:100840000A128A11831203133D0883160317DF006F
:10085000831203133C0883160317DE00831203136D
:100860003B0883160317DD00831203133A0883162F
:100870000317DC000A168A1531250A128A11FA01BB
:10088000BB30FB009830FC0000300A168A15DB22D2
:100890000A128A11DA3083120313C400D630C5005D
:1008A000D430C6000A30C7000030C80083160317D2
:1008B000490883120313CA008316031748088312DA
:1008C0000313C900D8300A168A1524270A128A1180
:1008D000FA0183160317540883160313A000200798
:1008E000D43E840083130008FB00840A00088403BC
:1008F000FC0001300A168A15DB220A128A11FA015D
:10090000FA0A83160317560883160313A00020075C
:10091000D43E840083130008FB00840A000884038B
:10092000FC0001300A168A15DB220A128A110230F5
:10093000FA00831603175A0883160313A000200732
:10094000D43E840083130008FB00840A000884035B
:10095000FC0001300A168A15DB220A128A110330C4
:10096000FA0083160317580883160313A000200704
:10097000D43E840083130008FB00840A000884032B
:10098000FC0001300A168A15DB220A128A11073090
:10099000FA00ED30FB009830FC0000300A168A1592
:1009A000DB220A128A11433083120313A3004F3053
:1009B000A2000030A1000030A000831603175F08DA
:1009C00083120313A700831603175E088312031311
:1009D000A600831603175D0883120313A500831670
:1009E00003175C0883120313A4000A128A1552210C
:1009F0000A128A1183120313230883160313EB00D0
:100A000083120313220883160313EA0083120313CD
:100A1000210883160313E9008312031320088316A9
:100A20000313E800DA3083120313C400D630C50084
:100A3000D430C6000A30C7000030C8008316031344
:100A40006B0883120313BD00831603136A08831215
:100A50000313BC0083160313690883120313BB003E
:100A600083160313680883120313BA000A168A1543
:100A700020240A128A11831203133B08CA003A0881
:100A8000C900D8300A168A1524270A128A1107309D
:100A9000FA0083160317560883160313A0002007D5
:100AA000D43E840083130008FB00840A00088403FA
:100AB000FC0001300A168A15DB220A128A1108305E
:100AC000FA00831603175A0883160313A0002007A1
:100AD000D43E840083130008FB00840A00088403CA
:100AE000FC0001300A168A15DB220A128A1109302D
:100AF000FA0083160317580883160313A000200773
:100B0000D43E840083130008FB00840A0008840399
:100B1000FC0001300A168A15DB220A128A110C30F9
:100B2000FA00F630FB009830FC0000300A168A15F7
:100B3000DB220A128A11403083120313A300C03053
:100B4000A2000030A1000030A000831603175F0848
:100B500083120313A700831603175E08831203137F
:100B6000A600831603175D0883120313A5008316DE
:100B700003175C0883120313A4000A128A1552217A
:100B80000A128A1183120313230883160313EF003A
:100B900083120313220883160313EE008312031338
:100BA000210883160313ED00831203132008831614
:100BB0000313EC00DA3083120313C400D630C500EF
:100BC000D430C6000A30C7000030C80083160313B3
:100BD0006F0883120313BD00831603136E0883127C
:100BE0000313BC00831603136D0883120313BB00A9
:100BF000831603136C0883120313BA000A168A15AE
:100C000020240A128A11831203133B08CA003A08EF
:100C1000C900D8300A168A1524270A128A110C3006
:100C2000FA00831603175A0883160313A00020073F
:100C3000D43E840083130008FB00840A0008840368
:100C4000FC0001300A168A15DB220A128A110D30C7
:100C5000FA0083160317580883160313A000200711
:100C6000D43E840083130008FB00840A0008840338
:100C7000FC0001300A168A15DB220A128A110A16B4
:100C80008A154A220A128A1183160317640865041A
:100C9000031D4B2E4C2EED2B64086504031D512EB5
:100CA000522E142B172B3230831603138F009B30D8
:100CB00092003D3083160317DF004C30DE00CC304D
:100CC000DD00CD30DC000A168A1598240A128A113C
:100CD00002308312031392009101121580309F009D
:100CE0008030831603139F00831203139E01831623
:100CF00003139E010A168A15C4210A128A11A42F11
:100D00000A128A1502200A128A1171088316031723
:100D1000C9007008C8003D3083120313D7004C305F
:100D2000D600CC30D500CD30D4004430BD007F306B
:100D3000BC00C030BB000030BA003D30A3004C30D6
:100D4000A200CC30A100CD30A000831603174808C4
:100D5000F0004908F1000030F11BFF30F200F30011
:100D600001300A168A156C260A128A11730883123A
:100D70000313A7007208A6007108A5007008A4005C
:100D80000A128A1552210A128A11831203132308A8
:100D9000C1002208C0002108BF002008BE000A16BA
:100DA0008A1173210A128A11831203133D08DB0092
:100DB0003C08DA003B08D9003A08D8000A128A1128
:100DC0005C200A128A118312031357088316031733
:100DD000DF0083120313560883160317DE00831205
:100DE0000313550883160317DD00831203135408F9
:100DF00083160317DC000A168A1598240A128A1132
:100E0000FA013F30FB009830FC0000300A168A15CA
:100E1000DB220A128A11DA3083120313C400D6309F
:100E2000C500D430C6000A30C7000030C8008316A1
:100E300003175F0883120313A700831603175E08C6
:100E400083120313A600831603175D08831203138E
:100E5000A500831603175C0883120313A400423015
:100E6000A300C830A2000030A1000030A0000A1288
:100E70008A1552210A128A11831203132308BD0016
:100E80002208BC002108BB002008BA000A168A15F7
:100E900020240A128A11831203133B08CA003A085D
:100EA000C900D8300A168A1524270A128A110B3075
:100EB000FA0083160317560883160313A0002007B1
:100EC000D43E840083130008FB00840A00088403D6
:100ED000FC0001300A168A15DB220A128A110C3036
:100EE000FA00831603175A0883160313A00020077D
:100EF000D43E840083130008FB00840A00088403A6
:100F0000FC0001300A168A15DB220A128A110D3004
:100F1000FA0083160317580883160313A00020074E
:100F2000D43E840083130008FB00840A0008840375
:100F3000FC0001300A168A15DB220A128A110A16F1
:100F40008A154A220A128A11831603176408650457
:100F5000031DAB2FAC2F802E64086504031DB12F39
:100F6000B22F142B172B4708003A0319BA2F0A1275
:100F70008A15FD2F4608003A0319D42F013A0319A8
:100F8000D72F033A0319DA2F013A0319DD2F073A55
:100F90000319232B013A0319BE2B033A0319532ECD
:100FA000B72F0A128A1100280A128A152C280A164D
:100FB0008A11422B0A128A15972C0A168A11152DAE
:100FC0008317C630FD001B30FE004130FF0090301B
:100FD00084000A168A15B5210A128A11831603178E
:100FE000DC01DD01DE01DF01E001E101E201E301FD
:100FF000E401E501E601E70183010A168A110E28E2
:101004000130F2000030831203139F180130013EB7
:101014000D280310F20DFF3E031D0B280130F300D1
:1010240000301F180130013E19280310F30DFF3E54
:10103400031D172873087204FF007F089F049F187C
:101044002428252821281E08F100831603131E08CE
:10105400F00008007230831603138F00852887017F
:10106400FA016A30FB009830FC0000300A168A1539
:10107400DB220A128A15FA017730FB009830FC0053
:1010840001300A168A15DB220A128A15031083120C
:1010940003130519031400300318013083160313D6
:1010A400A000A101200883160317E0008316031390
:1010B400210883160317E10060036104031D6328FC
:1010C4006428812862086304031D69286A2881282A
:1010D4006408650403196F287128013072280030F0
:1010E40083160313A000A101200883160317E4004C
:1010F40083160313210883160317E5008B28610860
:10110400E3006008E20083120313851D8A288B28FC
:1011140031288316031764086504031D9228932855
:10112400A1280A168A15C4210A128A1501308316C9
:101134000317E2000030E3000A168A1168298312BB
:1011440003130716FA012130FB009830FC0000302D
:101154000A168A15DB220A128A1583160317D2018E
:10116400D3015308803AFF0083307F02031DBC285B
:10117400E8305202031CBF28C028C128E228831289
:101184000313051EC628C728CE280130831603176B
:10119400CE000030CF00E2281A3083160313A100DA
:1011A400F730A000A00BD428A10BD428D9280130F3
:1011B40083160317D2070318D30A0030D307B328C2
:1011C400831603174E034F04031DE928EA28F22867
:1011D400CE01CF010A168A15C4210A128A159E2847
:1011E400831203138716FA013030FB009830FC0099
:1011F40001300A168A15DB220A128A158316031790
:10120400D201D3015308803AFF0083307F02031DCB
:101214000D29E8305202031C1029112912293329FF
:1012240083120313051E172918291F290130831659
:101234000317CE000030CF00332906308316031382
:10124400A1002F30A000A00B2529A10B25292A29B4
:10125400013083160317D2070318D30A0030D307CB
:101264000429831603174E034F04031D3A293B290F
:101274003C29EA282030831203138700FA01113035
:10128400FB009830FC0000300A168A15DB220A1293
:101294008A1583120313051E502951294B29EC2862
:1012A4008312031323088039AD002308A8002807FC
:1012B400B300A21F5E295F29602933143308031980
:1012C400642965297429330A031D69296A29722945
:1012D4000030A3000030A2000030A1000030A000C4
:1012E400A2177C290030A3000030A2000030A10026
:1012F4000030A00027088039FF007F08AD062708CA
:10130400A8002807B200A61F882989298A2932142F
:10131400320803198E298F299E29320A031D932925
:1013240094299C290030A7000030A6000030A500B5
:101334000030A400A617A6290030A7000030A6009C
:101344000030A5000030A40032080319AA29AB29F3
:10135400B0293308031DAF29B029B9290030A300EF
:101364000030A2000030A1000030A000962C20081C
:10137400F00026080A168A1523220A128A15710813
:1013840083120313B9007008B8003808A800A90133
:10139400AA01AB012B08B1002A08B0002908AF004C
:1013A4002808AE003908A800A901AA01AB012B083E
:1013B400B7002A08B6002908B5002808B400210897
:1013C400F00025080A168A1523220A128A157108C4
:1013D40083120313B9007008B8003808A800A901E3
:1013E400AA01AB012808AE07290803110318013E1E
:1013F4000319FD29AF072A0803110318013E031935
:10140400042AB0072B0803110318013E03190B2A01
:10141400B1073908A800A901AA01AB012808B4073B
:10142400290803110318013E0319192AB5072A08CC
:1014340003110318013E0319202AB6072B080311D0
:101444000318013E0319272AB7072208F0002408CD
:101454000A168A1523220A128A15710883120313A5
:10146400B9007008B8003808A800A901AA01AB01A6
:101474002808AE07290803110318013E0319432A5B
:10148400AF072A0803110318013E03194A2AB007BB
:101494002B0803110318013E0319512AB107390817
:1014A400A800A901AA01AB012808B407290803115F
:1014B4000318013E03195F2AB5072A08031103180C
:1014C400013E0319662AB6072B0803110318013ECF
:1014D40003196D2AB7070830A8000310AE0DAF0D2D
:1014E400B00DB10DA80B6F2A2108F00024080A16CC
:1014F4008A1523220A128A15710883120313B9006C
:101504007008B8003808A8003908A900AA01AB017E
:101514002808AE07290803110318013E0319932A6A
:10152400AF072A0803110318013E03199A2AB007CA
:101534002B0803110318013E0319A12AB10720083F
:10154400F00025080A168A1523220A128A15710842
:1015540083120313B9007008B8003808A8003908CA
:10156400A900AA01AB012808AE0729080311031832
:10157400013E0319BE2AAF072A0803110318013ECE
:101584000319C52AB0072B0803110318013E0319D8
:10159400CC2AB1070830A8000310AE0DAF0DB00D72
:1015A400B10DA80BCE2A2008F00024080A168A15CB
:1015B40023220A128A15710883120313B9007008D2
:1015C400B8003808A8003908A900AA01AB01280806
:1015D400AE07290803110318013E0319F22AAF07C5
:1015E4002A0803110318013E0319F92AB0072B082E
:1015F40003110318013E0319002BB1072108F00061
:1016040026080A168A1523220A128A1571088312DB
:101614000313B9007008B8003808A8003908A900F5
:10162400AA01AB012808B407290803110318013ED5
:1016340003191D2BB5072A0803110318013E0319CA
:10164400242BB6072B0803110318013E03192B2B77
:10165400B7072208F00025080A168A1523220A1261
:101664008A15710883120313B9007008B80038088A
:10167400A8003908A900AA01AB012808B407290861
:1016840003110318013E0319482BB5072A08031157
:101694000318013E03194F2BB6072B080311031837
:1016A400013E0319562BB7072208F00026080A1634
:1016B4008A1523220A128A15710883120313B900AA
:1016C4007008B8003808A8003908A900AA01AB01BD
:1016D40008300310A80DA90DAA0DAB0DFF3E031D84
:1016E4006B2B2808B407290803110318013E0319BA
:1016F4007C2BB5072A0803110318013E0319832B19
:10170400B6072B0803110318013E03198A2BB707E8
:101714002E08A8002F08A9003008AA003108AB0041
:1017240018300310AB0CAA0CA90CA80CFF3E031D27
:10173400932B2808B407290803110318013E031941
:10174400A42BB5072A0803110318013E0319AB2B78
:10175400B6072B0803110318013E0319B22BB70770
:101764000830A8000310AE0DAF0DB00DB10DA80BDD
:10177400B42B33083207A800A901A90D2808823E1A
:10178400B80029080318013EFF3EB900E62B0130DA
:10179400A8000310B40DB50DB60DB70DA80BCB2BD7
:1017A400B11FD52BD62BD72B34140130A80003102E
:1017B400AE0DAF0DB00DB10DA80BD92BFF30B8078E
:1017C4000318B90AFF30B907B61FE92BEA2BC92B56
:1017D400B201B11FEE2BEF2B0B2CFF302E05A8000E
:1017E400FF302F05A900FF303005AA007F303105F6
:1017F400AB002B082A04290428040319022C032C07
:10180400062CB201B20A0B2C341C092C0A2C0B2C0A
:10181400032C320803190F2C102C412C0130B4076F
:10182400003003180130B507003003180130B60743
:10183400003003180130B707371C212C222C412C0F
:101844003408A8003508A9003608AA003708AB00F8
:101854000130AC002B0DAB0CAA0CA90CA80CAC0BE2
:101864002C2C2B08B7002A08B6002908B500280834
:10187400B4000130B8070318B90A0030B9073908B1
:10188400803AFF0080307F02031D4A2CFF3038026B
:10189400031C4D2C4E2C592C7F3083120313B7009C
:1018A4008030B6000030B5000030B4008A2C8312BA
:1018B40003133908803AFF0080307F02031D642C33
:1018C400013038020318672C682C742C0030831202
:1018D4000313B7000030B6000030B5000030B40088
:1018E400AD018A2C831203133808B300FF30B4050A
:1018F400FF30B5057F30B6050030B705331C832CA7
:10190400842C852CB6173308A8000310280CB700C4
:101914002D08FF007F08B7043708A3003608A2008B
:101924003508A1003408A0000800723083160313A0
:101934008F007C309200003083160317DF000030E4
:10194400DE000030DD000030DC000A168A15312587
:101954000A128A15023083120313920091011215A0
:101964000A168A15C4210A128A15E42F8312031356
:10197400851EBD2CBE2C1E2D3C30D7002330D60036
:10198400D730D5000A30D400831603175F088312BA
:101994000313DB00831603175E0883120313DA00B4
:1019A400831603175D0883120313D90083160317E4
:1019B4005C0883120313D8000A128A115C200A12ED
:1019C4008A1583120313570883160317DF00831243
:1019D4000313560883160317DE00831203135508F6
:1019E40083160317DD0083120313540883160317A9
:1019F400DC003F30F3008030F2000030F1000030B2
:101A0400F0005F08F7005E08F6005D08F5005C086A
:101A1400F4000A168A15CA250A128A150318132D0A
:101A2400142D1E2D3F3083160317DF008030DE0097
:101A34000030DD000030DC0083120313051F232D6A
:101A4400242D842D3C30EB002330EA00D730E9000C
:101A54000A30E800831603175F0883120313EF00AC
:101A6400831603175E0883120313EE00831603170D
:101A74005D0883120313ED00831603175C088312B9
:101A84000313EC000A168A15DA210A128A15831246
:101A940003136B0883160317DF00831203136A080A
:101AA40083160317DE0083120313690883160317D2
:101AB400DD0083120313680883160317DC0000306B
:101AC400F3000030F2000030F1000030F0005F0855
:101AD400F7005E08F6005D08F5005C08F4000A16DD
:101AE4008A15CA250A128A15031C792D7A2D842D8C
:101AF400003083160317DF000030DE000030DD0005
:101B04000030DC000A168A1531250A128A150630BF
:101B1400FA00ED30FB009830FC0000300A168A15FC
:101B2400DB220A128A15433083120313A3004F30B9
:101B3400A2000030A1000030A000831603175F0844
:101B440083120313A700831603175E08831203137B
:101B5400A600831603175D0883120313A5008316DA
:101B640003175C0883120313A4000A128A15522176
:101B74000A128A1583120313230883160313EB0036
:101B840083120313220883160313EA008312031338
:101B9400210883160313E900831203132008831614
:101BA4000313E800DA3083120313C400D630C500EF
:101BB400D430C6000A30C7000030C80083160313AF
:101BC4006B0883120313BD00831603136A08831280
:101BD4000313BC0083160313690883120313BB00A9
:101BE40083160313680883120313BA000A168A15AE
:101BF40020240A128A15831203133B08CA003A08E8
:101C0400C900D8300A168A1524270A128A15063004
:101C1400FA0083160317560883160313A00020073F
:101C2400D43E840083130008FB00840A0008840364
:101C3400FC0001300A168A15DB220A128A150730C5
:101C4400FA00831603175A0883160313A00020070B
:101C5400D43E840083130008FB00840A0008840334
:101C6400FC0001300A168A15DB220A128A15083094
:101C7400FA0083160317580883160313A0002007DD
:101C8400D43E840083130008FB00840A0008840304
:101C9400FC0001300A168A15DB220A128A15FA01A1
:101CA400EC30FB009830FC0000300A168A15DB2269
:101CB4000A128A15433083120313BD004F30BC004F
:101CC4000030BB000030BA004230A300C830A2008C
:101CD4000030A1000030A000831603136B088312A8
:101CE4000313A700831603136A0883120313A600C1
:101CF40083160313690883120313A50083160313C1
:101D0400680883120313A4000A128A1552210A12C6
:101D14008A15831203132308C1002208C000210876
:101D2400BF002008BE000A168A1173210A128A1500
:101D3400831203133D0883160313C900831203138C
:101D44003C0883160313C800831203133B0883164D
:101D54000313C700831203133A0883160313C60040
:101D6400DA3083120313C400D630C500D430C60061
:101D74000A30C7000030C8008316031349088312D1
:101D84000313BD0083160313480883120313BC0016
:101D940083160313470883120313BB00831603132C
:101DA400460883120313BA000A168A1520240A125D
:101DB4008A15831203133B08CA003A08C900D830B5
:101DC4000A168A1524270A128A15FA01FA0A8316B2
:101DD4000317560883160313A0002007D43E84007B
:101DE40083130008FB00840A00088403FC0001300C
:101DF4000A168A15DB220A128A150230FA008316A3
:101E040003175A0883160313A0002007D43E840046
:101E140083130008FB00840A00088403FC000130DB
:101E24000A168A15DB220A128A150330FA00831671
:101E34000317580883160313A0002007D43E840018
:101E440083130008FB00840A00088403FC000130AB
:101E54000A168A15DB220A128A150B30FA00F630AC
:101E6400FB009830FC0000300A168A15DB220A12A7
:101E74008A15403083120313A300C030A20000303F
:101E8400A1000030A000831603175F088312031318
:101E9400A700831603175E0883120313A600831694
:101EA40003175D0883120313A500831603175C0848
:101EB40083120313A4000A128A1552210A128A15E6
:101EC40083120313230883160313EF0083120313EF
:101ED400220883160313EE008312031321088316CA
:101EE4000313ED0083120313200883160313EC007D
:101EF400DA3083120313C400D630C500D430C600D0
:101F04000A30C7000030C800831603136F08831219
:101F14000313BD00831603136E0883120313BC005E
:101F2400831603136D0883120313BB008316031374
:101F34006C0883120313BA000A168A1520240A12A5
:101F44008A15831203133B08CA003A08C900D83023
:101F54000A168A1524270A128A150C30FA008316E9
:101F640003175A0883160313A0002007D43E8400E5
:101F740083130008FB00840A00088403FC0001307A
:101F84000A168A15DB220A128A150D30FA00831606
:101F94000317580883160313A0002007D43E8400B7
:101FA40083130008FB00840A00088403FC0001304A
:101FB4000A168A15DB220A128A150A168A154A227B
:101FC4000A128A158316031764086504031DEB2F90
:101FD400EC2FB82C64086504031DF12FF42F0A16A6
:101FE4008A1168290A168A15C4210A128A158312CD
:0C1FF40003139B0112110A128A159E288B
:10201C00A4308400B83083160313A0000408A10078
:10202C000E30A2002008840083170008A300A00A29
:10203C0021088400831323088000A10AA20B18280E
:10204C00D4308400A430A0000408A1001430A200F5
:10205C002008840083170008A300A00A210884002C
:10206C00831323088000A10AA20B2E2883160317C2
:10207C00C601C70183160313D001D101CA01CB01DC
:10208C0083160317D201D301CE01CF01D001D101A8
:10209C00CA01CB01C801C90183160313D201D301B4
:1020AC00CE01CF0183160317D801D901DA01DB0168
:1020BC00D601D701D401D501003083160313C90012
:1020CC000030C8000030C7000030C6000030EB0004
:1020DC000030EA000030E9000030E8000030EF008A
:1020EC000030EE000030ED000030EC00B230840027
:1020FC009030A0000408A1001430A2002008840035
:10210C0083170008A300A00A210884008313230866
:10211C008000A10AA20B84280130831603178800C3
:10212C008901FF3083160313850087010F30880067
:10213C00831203138701850188010A168A150D2362
:10214C000A168A1168297230831603138F00FA015C
:10215C000030FB009830FC0000300A168A15DB2298
:10216C000A168A11FA01A230FB009830FC000130EB
:10217C000A168A15DB220A168A110310831203131E
:10218C008518031400300318013083160313A000C4
:10219C00A101200883160317CC0083160313210812
:1021AC0083160317CD004C034D04031DDE28DF28D6
:1021BC0000298316031350085104031DE628E72851
:1021CC000029013083160317C6070318C70A00300D
:1021DC00C7074708803AFF0080307F02031DF828AC
:1021EC0007304602031CFB28FC2800298316031722
:1021FC00C601C7010930FA00831603174608831677
:10220C000313A0002007A43E840083130008FB00E6
:10221C00840A00088403FC0001300A168A15DB22AC
:10222C000A168A11831603174D0883160313D1005F
:10223C00831603174C0883160313D0000310831264
:10224C00031305190314003003180130831603130C
:10225C00A000A101200883160317E00083160313C6
:10226C00210883160317E10060036104031D3F2955
:10227C004029612962086304031D45294629612907
:10228C006408650403194B294D2901304E2900308F
:10229C0083160313A000A101200883160317E40082
:1022AC0083160313210883160317E5000A168A15F3
:1022BC00C4210A168A11831603176108E30060080B
:1022CC00E2006829831603176408650403196F2953
:1022DC007029A9280A128A11B32F831203134108FB
:1022EC008039CB004108C2004207D200C01F7F29B1
:1022FC008029812952145208031985298629962987
:10230C00520A031D8A298B2993290030C100003001
:10231C00C0000030BF000030BE00C017C1019E29B4
:10232C000030C1000030C0000030BF000030BE00E3
:10233C003D088039FF007F08CB063D08C2004207EC
:10234C00D300BC1FAA29AB29AC2953145308031979
:10235C00B029B129C129530A031DB529B629BE29B3
:10236C000030BD000030BC000030BB000030BA00B3
:10237C00BC17BD01C9290030BD000030BC000030C5
:10238C00BB000030BA003D083C043B043A04031D7A
:10239C00D029D129EA290030C1000030C00000301A
:1023AC00BF000030BE008030C0047F30C1044B0839
:1023BC00FF007F08C1044108BD004008BC003F0875
:1023CC00BB003E08BA00412B5208031DEE29EF2931
:1023DC00F8290030BD000030BC000030BB000030DC
:1023EC00BA00412B5208C200C3014308C500530870
:1023FC004202C400031CC50344087F3ECC004508C0
:10240C000318013E003ECD004108CA004008C90037
:10241C003F08C8003E08C7000030C1000030C000B3
:10242C000030BF000030BE000030D1000030D000C2
:10243C000030CF000030CE00D3016E2A53080319B0
:10244C00282A292A492A0130C2000310C70DC80DB9
:10245C00C90DCA0DC20B2B2A0130C2000310BE0DD0
:10246C00BF0DC00DC10DC20B342AD11F3E2A3F2A0D
:10247C00402A3E140130C2000310CE0DCF0DD00DFA
:10248C00D10DC20B422A3D084A02031D572A3C08B3
:10249C004902031D572A3B084802031D572A3A08D4
:1024AC004702031C5A2A5B2A6A2A51173A08C702A8
:1024BC003B08031C3B0FC8023C08031C3C0FC90221
:1024CC003D08031C3D0FCA020130FF007F08D307F3
:1024DC001A305302031C732A742A242A4A0849040A
:1024EC004804470403197B2A7C2A9B2A4E149B2AF6
:1024FC000130C2000310BE0DBF0DC00DC10DC20BCB
:10250C00802AD11F8A2A8B2A8C2A3E140130C200C1
:10251C000310CE0DCF0DD00DD10DC20B8E2AFF3076
:10252C00CC070318CD0AFF30CD07C01F9E2A9F2A67
:10253C007E2AD301D11FA32AA42AC02AFF304E051C
:10254C00C200FF304F05C300FF305005C4007F3080
:10255C005105C50045084404430442040319B72A35
:10256C00B82ABB2AD301D30AC02A3E1CBE2ABF2AD2
:10257C00C02AB82A53080319C42AC52AF62A0130DE
:10258C00BE07003003180130BF07003003180130BC
:10259C00C007003003180130C107411CD62AD72AC6
:1025AC00F62A3E08C2003F08C3004008C400410898
:1025BC00C5000130C600450DC50CC40CC30CC20CC3
:1025CC00C60BE12A4508C1004408C0004308BF00FF
:1025DC004208BE000130CC070318CD0A0030CD07ED
:1025EC004D08803AFF0080307F02031DFF2AFF3028
:1025FC004C02031C022B032B112BFF3083120313F1
:10260C00CC000030CD000030C1000030C0000030E4
:10261C00BF000030BE00831203134D08803AFF0048
:10262C0080307F02031D1C2B01304C0203181F2B22
:10263C00202B2D2B83120313CC01CD010030C100B4
:10264C000030C0000030BF000030BE00CB01831250
:10265C0003134C08D200521C342B352B372BC017CC
:10266C003B2B7F30FF007F08C0055208C2000310CF
:10267C00420CC100DD2908007230831603138F0051
:10268C00FA014E30FB009830FC0000300A168A1517
:10269C00DB220A168A11E62B08080F39831603135E
:1026AC00A000A1012008D2002108D300DA30831247
:1026BC000313C400D630C500D430C6000830C700A0
:1026CC000030C80083160313530883120313CA0087
:1026DC0083160313520883120313C900D8300A1649
:1026EC008A1524270A168A11FA01831603175A0829
:1026FC0083160313A0002007D43E84008313000824
:10270C00FB00840A00088403FC0001300A168A15B9
:10271C00DB220A168A11FA01FA0A831603175808E3
:10272C0083160313A0002007D43E840083130008F3
:10273C00FB00840A00088403FC0001300A168A1589
:10274C00DB220A168A1103108312031305190314D2
:10275C0000300318013083160313A000A1012008D8
:10276C0083160317E000831603132108831603173F
:10277C00E10060036104031DC42BC52BE22B62082E
:10278C006304031DCA2BCB2BE22B640865040319CD
:10279C00D02BD22B0130D32B003083160313A00087
:1027AC00A101200883160317E400831603132108E4
:1027BC0083160317E500EC2B6108E3006008E200C8
:1027CC0083120313851DEB2BEC2B522B8316031753
:1027DC0064086504031DF32BF42BF72B0A128A15DE
:1027EC0093280230FA00FF30FB009830FC000130D7
:1027FC000A168A15DB220A168A11992C08080F3939
:10280C0083160313A000A1012008CE002108CF00DD
:10281C00DA3083120313C400D630C500D430C6009E
:10282C000830C7000030C800831603134F0883120A
:10283C000313CA00831603134E0883120313C90033
:10284C00D8300A168A1524270A168A110330FA0082
:10285C00831603175A0883160313A0002007D43ECF
:10286C00840083130008FB00840A00088403FC0026
:10287C0001300A168A15DB220A168A110430FA0076
:10288C0083160317580883160313A0002007D43EA1
:10289C00840083130008FB00840A00088403FC00F6
:1028AC0001300A168A15DB220A168A1103108312CC
:1028BC000313051903140030031801308316031396
:1028CC00A000A101200883160317E0008316031350
:1028DC00210883160317E10060036104031D772CA4
:1028EC00782C952C62086304031D7D2C7E2C952C72
:1028FC00640865040319832C852C0130862C003068
:10290C0083160313A000A101200883160317E4000B
:10291C0083160313210883160317E500A12C610805
:10292C00E3006008E2001830831203130506031D50
:10293C00A02CA12C042C8316031764086504031D1A
:10294C00A82CA92CAA2CF42B0530FA001130FB0072
:10295C009930FC0001300A168A15DB220A168A11FE
:10296C00831603134E08D2070318D30A4F08D30754
:10297C00DA3083120313C400D630C500D430C6003D
:10298C000830C7000030C8008316031353088312A5
:10299C000313CA0083160313520883120313C900CE
:1029AC00D8300A168A1524270A168A110630FA001E
:1029BC00831603175A0883160313A0002007D43E6E
:1029CC00840083130008FB00840A00088403FC00C5
:1029DC0001300A168A15DB220A168A110730FA0012
:1029EC0083160317580883160313A0002007D43E40
:1029FC00840083130008FB00840A00088403FC0095
:102A0C0001300A168A15DB220A168A118312031367
:102A1C00851C112D122D0C2D0A128A15EC28323022
:102A2C00831603138F009B3092003D3083160317DF
:102A3C00DF004C30DE00CC30DD00CD30DC000A167F
:102A4C008A1598240A168A110230831203139200F5
:102A5C00910112150A168A15C4210A168A110A1236
:102A6C008A11052B83120313851E3D2D3E2DA92D96
:102A7C003C30D7002330D600D730D5000A30D400F4
:102A8C00831603175F0883120313DB0083160317E7
:102A9C005E0883120313DA00831603175D08831292
:102AAC000313D900831603175C0883120313D80091
:102ABC000A128A115C200A168A1183120313570812
:102ACC0083160317DF0083120313560883160317AC
:102ADC00DE0083120313550883160317DD008312DF
:102AEC000313540883160317DC003D30F300CC307D
:102AFC00F200CC30F100CD30F0005F08F7005E083A
:102B0C00F6005D08F5005C08F4000A168A15CA2563
:102B1C000A168A110318932D942D9E2D3D30831681
:102B2C000317DF00CC30DE00CC30DD00CD30DC0014
:102B3C001A3083160313A100F730A000A00BA42DAC
:102B4C00A10BA42DA92D83120313051FAE2DAF2DA0
:102B5C001A2E3C30EB002330EA00D730E9000A3063
:102B6C00E800831603175F0883120313EF00831624
:102B7C0003175E0883120313EE00831603175D0818
:102B8C0083120313ED00831603175C0883120313DF
:102B9C00EC000A168A15DA210A168A11831203131D
:102BAC006B0883160317DF00831203136A0883165E
:102BBC000317DE0083120313690883160317DD0065
:102BCC0083120313680883160317DC005F08F300F5
:102BDC005E08F2005D08F1005C08F0003D30F70083
:102BEC004C30F600CC30F500CD30F4000A168A15C6
:102BFC00CA250A168A110318042E052E0F2E3D30F5
:102C0C0083160317DF004C30DE00CC30DD00CD30F6
:102C1C00DC001A3083160313A100F730A000A00BC0
:102C2C00152EA10B152E1A2E0A168A1598240A1683
:102C3C008A11031083120313851803140030031830
:102C4C00013083160313A000A1012008CC00210839
:102C5C00CD004C034D04031D342E352E682E4A082E
:102C6C004B04031D3A2E3B2E682E83160317500877
:102C7C0083160313A00001300310A00DFF3E031DAB
:102C8C00422E0310200DB23E8400831603175C08FD
:102C9C0083138000840A5D088000840A5E0880002B
:102CAC00840A5F0880000130D0070318D10A003075
:102CBC00D107053050065104031D652E662E682E73
:102CCC00D001D10103134D08CB004C08CA00FA0106
:102CDC00FB30FB009830FC0000300A168A15DB2212
:102CEC000A168A11423083120313A300C830A200C3
:102CFC000030A1000030A000831603175F08831278
:102D0C000313A700831603175E0883120313A60090
:102D1C00831603175D0883120313A500831603178C
:102D2C005C0883120313A4000A128A1552210A1696
:102D3C008A1183120313230883160313EF008312E3
:102D4C000313220883160313EE00831203132108C6
:102D5C0083160313ED008312031320088316031349
:102D6C00EC00DA3083120313C400D630C500D43023
:102D7C00C6000A30C7000030C800831603136F0862
:102D8C0083120313BD00831603136E0883120313FF
:102D9C00BC00831603136D0883120313BB00831648
:102DAC0003136C0883120313BA000A168A15202425
:102DBC000A168A11831203133B08CA003A08C90089
:102DCC00D8300A168A1524270A168A110530FA00FB
:102DDC00831603175A0883160313A0002007D43E4A
:102DEC00840083130008FB00840A00088403FC00A1
:102DFC0000300A168A15DB220A168A110630FA00F0
:102E0C0083160317580883160313A0002007D43E1B
:102E1C00840083130008FB00840A00088403FC0070
:102E2C0000300A168A15DB220A168A11FA01F130D3
:102E3C00FB009830FC0001300A168A15DB220A16BA
:102E4C008A11DA3083120313C400D630C500D43093
:102E5C00C6000A30C7000030C8008316031751089B
:102E6C0083120313CA00831603175008831203132B
:102E7C00C900D8300A168A1524270A168A1105307B
:102E8C00FA00831603175A0883160313A0002007B1
:102E9C00D43E840083130008FB00840A00088403DA
:102EAC00FC0001300A168A15DB220A168A1106303C
:102EBC00FA0083160317580883160313A000200783
:102ECC00D43E840083130008FB00840A00088403AA
:102EDC00FC0001300A168A15DB220A168A118316A9
:102EEC0003174E034F04031D7C2F7D2FE02F013061
:102EFC00D0070318D10A0030D10705305006510411
:102F0C00031D892F8A2FA22FD001D1013D30DF0064
:102F1C004C30DE00CC30DD00CD30DC00CE01CF01FA
:102F2C000930FA00AB30FB009830FC0000300A1678
:102F3C008A15DB220A168A1183160317D201D301D4
:102F4C005308803AFF0080307F02031DAF2F7D3085
:102F5C005202031CB22FB32FB42FE02F8312031392
:102F6C00051EB92FBA2FCD2F83160317CE01CF0113
:102F7C00D001D1010930FA00AB30FB009830FC00D5
:102F8C0000300A168A15DB220A168A11E02F03304C
:102F9C0083160313A1009730A000A00BD32FA10B15
:102FAC00D32F013083160317D2070318D30A00302E
:102FBC00D307A62F031083120313851903140030B3
:102FCC000318013083160313A000A10120088316F7
:102FDC000317CC0083160313210883160317CD00A7
:102FEC004C034D04031DFD2F0A128A11B42A0A1238
:102FFC008A11D02A533465346C34653463346334A9
:10300C0069346F346E3461347234203470347234F9
:10301C006134633400344D34313420342034203462
:10302C004134703461346734613464346F34203427
:10303C002034203400344D343134203420342034C6
:10304C0045346E34633465346E34643469346434BA
:10305C006F3400344D343234203420342034453431
:10306C006E34633465346E346434693464346F3470
:10307C00003443346934633420346434653420348C
:10308C00543472346134623461346A346F340034D1
:10309C00533475346D346134203465346E342034DB
:1030AC006F346334743461346C3400344D346F34A5
:1030BC0074346F34723420346134203450346134BD
:1030CC0073346F34733400344D3431342034203441
:1030DC0020344134703461346734613464346F3477
:1030EC0000344D34323420342034203441347034A4
:1030FC0061346734613464346F34003441346C347B
:10310C0074346F3420342034203420342034003490
:10311C004434653472346534633468346134203437
:10312C002034003449347A3471347534693465345C
:10313C007234643461340034503472346134633426
:10314C0074346934633461340034203420342034D2
:10315C00203420342034203400345234653470341C
:10316C0020344D346F3476340034563461346C343E
:10317C0041346E34673400343134323420342034EA
:10318C0020340034313433342034203420340034AF
:10319C003134343420342034203400343134353458
:1031AC00203420342034003431343634203420346C
:1031BC00203400343134313420344534313400344B
:1031CC0031343134203445343234003425345234E3
:1031DC0050344D340034233450346F347334003451
:1031EC0056346F346C3474340034253443345434D2
:1031FC0000342B3400343034003433340034343461
:10320C000034353400343634003437340034383438
:10321C000034393400343D340034FF1B1D29831332
:10322C007F1883170008840A0319FF0A08007F0817
:0E323C007F398A000408840A0319FF0A820001
:103362007E088A007F0882000A168A15B1210A1691
:103372008A158000840A04087D0603190034FF0AB6
:103382000319FE0AB52901300A168A1579220A168E
:103392008A150630F4003030F300F30BCE29F40B1B
:1033A200CE29000080300A168A1579220A168A155B
:1033B2000800803083120313EB066F08D7006E08F3
:1033C200D6006D08D5006C08D4006B08DB006A08D3
:1033D200DA006908D9006808D8000A128A115C204C
:1033E2000A168A15831203135708EB005608EA00DF
:1033F2005508E9005408E8000800F401F501701CC2
:10340200032A042A0A2A7208F4070318F50A730821
:10341200F50701300310F20DF30DFF3E031D0B2AD9
:1034220001300310F10CF00CFF3E031D122A70084C
:103432007104031D1D2A1E2A002A7508F100740852
:10344200F0000800F800F401F5017008F200F30141
:103452007208F6007308F700781C302A312A372ADE
:103462007608F4070318F50A7708F5070130031008
:10347200F60DF70DFF3E031D382A0310F80C7808ED
:10348200031D442A452A2D2A7508F1007408F0000C
:1034920008000310831203130519031400300318E4
:1034A2000130F000F101700883160317E000710883
:1034B200E10060036104031D5F2A602A742A620826
:1034C2006304031D652A662A742A640865040319C5
:1034D2006B2A6D2A01306E2A0030F000F10170086B
:1034E200E4007108E5006108E3006008E2000800FA
:1034F200F2007208F0390238831203138600812A1F
:10350200FD30FF007F088312031386050D30F000A3
:10351200F00B892A7208F00003300310F00DFF3E11
:10352200031D8E2A0310700D0238831203138600C6
:103532009A2AFD30FF007F088312031386050330A9
:10354200F1009730F000F00BA42AF10BA42AA92A6B
:103552000800F2007208F039033883120313860060
:10356200B22AFD30FF007F088312031386050D3057
:10357200F000F00BBA2A7208F00003300310F00DCD
:10358200FF3E031DBF2A0310700D0338831203137D
:103592008600CB2AFD30FF007F08831203138605C5
:1035A2000330F1009730F000F00BD52AF10BD52A49
:1035B200DA2A0800FD007D08031DE02AE12AF02A2C
:1035C20010307A020318E62AE72AF02A7A080F391D
:1035D20080380A168A1579220A168A15032B7D036A
:1035E200031DF42AF52A032B10307A020318FA2A53
:1035F200FB2A032B7A080F39C0380A168A1579225A
:103602000A168A157B08F3007C08F4000A168A154C
:1036120077230A168A1508008316031386013430AD
:10362200F400F130F300F30B142BF40B142B192BD1
:1036320002300A168A1579220A168A1528300A16C5
:103642008A1579220A168A150C300A168A157922E9
:103652000A168A1506300A168A1579220A168A155A
:1036620001300A168A1579220A168A150630F400E4
:103672003030F300F30B3B2BF40B3B2B0000080024
:10368200CD34CC344C343D34CD34CC344C343D3454
:10369200CD34CC344C343D34CD34CC344C343D3444
:1036A200CD34CC344C343D3401349934E434983440
:1036B200EA3498340334993405349934073499340C
:1036C200093499340B3499340D3499340F349934C4
:1036D200E0349834E6349834C2349834C834983498
:1036E200CE349834D4349834DA349834F801F90169
:1036F2009C2B78087307F6007408F5000318F50A86
:10370200F81F842BF5037508F7007708831203135B
:10371200FF00760884000A168A1513210A168A15F4
:103722000A168A15AA220A168A150130F807031802
:10373200F90A0030F90778087307F6007408F500F3
:103742000318F50AF81FA62BF5037508F70077088A
:1037520083120313FF00760884000A168A151321C8
:103762000A168A15003A031DB72BB82B7A2B0800CC
:10377200FB01F71FBD2BBE2BC52BF609F709F60A75
:103782000319F70AFB01FB0AF91FC82BC92BD22B1D
:10379200F809F909F80A0319F90A0130FF007F084C
:1037A200FB06FC01FD01760877040319D92BDA2BFD
:1037B200112CFA01FA0AE82B01300310F60DF70D6D
:1037C200FF3E031DDE2B0130FF007F08FA07F71FC3
:1037D200EB2BEC2BDD2B01300310FC0DFD0DFF3E1E
:1037E200031DED2B77087902031DF92B7608780269
:1037F200031CFC2BFD2B042C7608F8027708031C13
:10380200F903F9027C1401300310F70CF60CFF3EA9
:10381200031D052C0130FA02031D102C112CEC2B78
:103822007B080319152C162C1B2CFC09FD09FC0A1C
:103832000319FD0A7D08F7007C08F6000800031052
:10384200831203133C0D3D0DC3004308031D2A2CB4
:103852002B2C342C0030BD000030BC000030BB00EB
:103862000030BA00972C3A08BE003B08BF003C0863
:10387200C0003D08C1001F300310C10CC00CBF0CBA
:10388200BE0CFF3E031D3D2C3E08C200BC17FF309C
:10389200BA05FF30BB05FF30BC050030BD059630D0
:1038A200C302C31F552C562C702C4308803A973EF6
:1038B20003185C2C5D2C5E2C2B2C01300310BD0CEC
:1038C200BC0CBB0CBA0CFF3E031D5F2C0130FF0089
:1038D2007F08C307031D6E2C6F2C5E2C872C2030B3
:1038E2004302031C752C762C822C2B2C0130BE003B
:1038F2000310BA0DBB0DBC0DBD0DBE0B792C0130F2
:10390200C3024308031D862C872C772C4208031917
:103912008B2C8C2C972CBA09BB09BC09BD09BA0A9D
:103922000319BB0A0319BC0A0319BD0A080083164E
:1039320003175F0883120313A700831603175E0899
:1039420083120313A600831603175D088312031361
:10395200A500831603175C0883120313A4004030EA
:10396200A3008030A2000030A1000030A0000A12A3
:103972008A1552210A168A15831203132308C900D5
:103982002208C8002108C7002008C6004908A7006D
:103992004808A6004708A5004608A400831603139A
:1039A2001208013EF000003003180130F100F2016C
:1039B200F11BF2037208F30001300A168A156C2615
:1039C2000A168A15730883120313A3007208A20051
:1039D2007108A1007008A0000A128A1552210A1665
:1039E2008A15831203132308BD002208BC00210894
:1039F200BB002008BA000A168A1520240A168A1566
:103A0200831203133B0883160317E7008312031381
:103A12003A0883160317E600670883120313C500EA
:103A220083160317660883120313C400450DC50CE1
:103A3200C40C450DC50CC40C44089500831603172D
:103A42006608033983120313C40003300310C40D44
:103A5200FF3E031D272D0310440D0C38970008006C
:103A6200831603175F0883120313A7008316031735
:103A72005E0883120313A600831603175D088312E0
:103A82000313A500831603175C0883120313A40013
:103A92004030A3008030A2000030A1000030A0001E
:103AA2000A128A1552210A168A1583120313230851
:103AB200C9002208C8002108C7002008C60049081A
:103AC200A7004808A6004708A5004608A4008316D8
:103AD20003131208013EF000003003180130F10018
:103AE200F201F11BF2037208F30001300A168A1583
:103AF2006C260A168A15730883120313A300720830
:103B0200A2007108A1007008A0000A128A155221B1
:103B12000A168A15831203132308BD002208BC006B
:103B22002108BB002008BA000A168A1520240A16AA
:103B32008A15831203133B0883160317E7008312C7
:103B420003133A0883160317E60067088312031368
:103B5200C50083160317660883120313C400450DBC
:103B6200C50CC40C450DC50CC40C44089B0083163F
:103B720003176608033983120313C40003300310CA
:103B8200C40DFF3E031DC02D0310440D0C389D00D3
:103B9200080000307005F80000307105F90080302F
:103BA2007205FA007F307305FB007B087A04790402
:103BB2007804031DDD2DDE2DE62D0030F3000030EC
:103BC200F2000030F1000030F00000307405F8001F
:103BD20000307505F90080307605FA007F307705F0
:103BE200FB007B087A0479047804031DF92DFA2D71
:103BF200022E0030F7000030F6000030F5000030F1
:103C0200F400F31F052E062E2A2E0030F800003095
:103C1200F9000030FA008030FB007008F8027108E9
:103C2200031C710F152E162EF9027208031C720F57
:103C32001B2E1C2EFA027308031C730F212E222E38
:103C4200FB027B08F3007A08F2007908F100780899
:103C5200F000F71F2D2E2E2E522E0030F8000030CD
:103C6200F9000030FA008030FB007408F802750891
:103C7200031C750F3D2E3E2EF9027608031C760FAB
:103C8200432E442EFA027708031C770F492E4A2E40
:103C9200FB027B08F7007A08F6007908F50078083D
:103CA200F4008030F3068030F70677087302031DB4
:103CB200642E76087202031D642E75087102031DBC
:103CC200642E740870020318672E682E6A2E031081
:103CD2006B2E03140800F80078080319712E722E57
:103CE200862EF31F752E762E862E7009FA00710924
:103CF200FB007209FC007309FD00FA0A0319FB0AB2
:103D02000319FC0A0319FD0A8E2E7308FD007208BE
:103D1200FC007108FB007008FA0073087204710459
:103D22007004031D952E962E9F2E0030F300003056
:103D3200F2000030F1000030F000232F9630F9003D
:103D4200AF2E0130FF007F08F90701300310FD0C90
:103D5200FC0CFB0CFA0CFF3E031DA72EFE307D056A
:103D6200031DB42EB52EA22ED12E0130FF007F08E6
:103D7200F9070130FA07003003180130FB07003061
:103D820003180130FC07003003180130FD07013031
:103D92000310FD0CFC0CFB0CFA0CFF3E031DC92E9C
:103DA200FF307D05031DD62ED72EB62EE32E013011
:103DB200F9020130F4000310FA0DFB0DFC0DFD0DAC
:103DC200F40BDC2EFC1BE62EE72EED2E02307902E0
:103DD2000318EC2EED2ED82E7918F02EF12EF92E96
:103DE200FF30FA05FF30FB057F30FC05FF30FD0593
:103DF2000310F90C7908F400F501F601F701183007
:103E02000310F40DF50DF60DF70DFF3E031D012F06
:103E12007408FA047508FB047608FC047708FD04AC
:103E220078080319152F162F1B2FF31F192F1A2F7E
:103E32001B2FFD177D08F3007C08F2007B08F100C0
:103E42007A08F000080083120313CD000830CB007B
:103E52000030CC000A3047064804031D312F322FB0
:103E6200D12F0A30CB000030CC00E830F60003300E
:103E7200F7004A08F9004908F8000A168A15B9231A
:103E82000A168A15831203134608840076088317DC
:103E92008000840A77088000460884000008F00049
:103EA200840A0008F100E830F2000330F3000A1639
:103EB2008A15FE210A168A15700883120313C90295
:103EC2007108031CCA03CA020A30F0000030F10074
:103ED2000A30F2000030F3000A168A15FE210A1693
:103EE2008A157108F7007008F600831203134A0856
:103EF200F9004908F8000A168A15B9230A168A1524
:103F02008312031345088400760883178000840A0D
:103F120077088000450884000008F000840A000841
:103F2200F1006430F2000030F3000A168A15FE2117
:103F32000A168A15700883120313C9027108031C3A
:103F4200CA03CA020A30F6000030F7004A08F90034
:103F52004908F8000A168A15B9230A168A15831227
:103F6200031344088400760883178000840A7708C4
:103F720080000A30F0000030F1004A08F3004908DE
:103F8200F2000A128A1103200A168A1583120313F9
:103F92004D088400700883178000840A710880002D
:103FA2004C08F7004B08F6004A08F9004908F800E7
:103FB2000A168A15B9230A168A15831203134408AE
:103FC2008400760883178000840A770880004C08F2
:103FD200F1004B08F0004A08F3004908F2000A1207
:103FE2008A1103200A168A15831203134D088400CE
:0E3FF200700883178000840A710880000800A0
:04400E00E42FFF3F5D
:00000001FF
